:100000009EC20000CDC20000CBC20000C9C20000E9
:10001000C7C20000C5C20000C3C20000C1C20000C8
:10002000BFC20000BDC20000BBC20000B9C20000D8
:10003000B7C20000B5C20000B3C20000B1C20000E8
:10004000AFC20000ADC20000ABC20000A9C20000F8
:10005000A7C20000A5C20000A3C200000C94872123
:100060009FC200000C9445250C941C2599C20000E9
:1000700097C2000095C2000093C2000091C2000028
:100080008FC200008DC200008BC2000089C2000038
:1000900087C2000085C2000083C2000081C2000048
:1000A0007FC200007DC200007BC2000079C2000058
:1000B00077C2000075C2000073C2000071C2000068
:1000C0006FC200006DC200006BC2000069C2000078
:1000D00067C2000065C2000063C2000061C2000088
:1000E0005FC20000900CCE0CF30C180D3D0D620D9C
:1000F000870D9B0DD30D740EB30EF20E310F700FE2
:10010000AF0FEE0F1C1072106B1F6E1F5D1F611F73
:10011000671FA51F721F761F7C1F801F841F8A1FE9
:100120008E1F921FA51F981F9C1FA01F00407A10B2
:10013000F35A00A0724E18090010A5D4E80000E898
:100140007648170000E40B54020000CA9A3B0000F6
:1001500000E1F505000080969800000040420F0085
:100160000000A08601000000102700000000E80346
:10017000000000006400000000000A000000000011
:100180000100000000002C76D888DC674F0823DFD0
:10019000C1DFAE59E1B1B796E5E3E453C63AE651A3
:1001A000997696E8E6C28426EB898C9B62ED407CCA
:1001B0006FFCEFBC9C9F40F2BAA56FA5F490055A66
:1001C0002AF75C936B6CF9676DC11BFCE0E40D478B
:1001D000FEF520E6B500D0ED902E030094357705AE
:1001E0000080841E080000204E0A000000C80C3366
:1001F0003333330F986E12831141EF8D2114893BF5
:10020000E65516CFFEE6DB18D1844B381BF77C1D74
:10021000901DA4BBE424203284725E228100C9F1C7
:1002200024ECA1E53D272020202020202020202094
:100230002020202020202020200020005344434C58
:100240004F534544005468656E20536F66742052C6
:100250006573657400436865636B20436172640075
:100260005344204E6F74205265616479002C005411
:10027000696D652C0053444F50454E00000021002D
:10028000240027002A002D00300033000101000067
:10029000040107010A0100002200250028002B00AC
:1002A0002E003100340002010000050108010B019D
:1002B000000020002300260029002C002F0032001F
:1002C00000010000030106010901050505050705F8
:1002D00008080808020202020A0A080804040404C2
:1002E00001010101010101010303030303030303EE
:1002F000040707070C0C0C0C0C0C0C0C020202027D
:1003000006060606060606060B0B0B0B0B0B0B0B65
:100310000102102020080810204010204080020117
:1003200002010804020101020408102040808040FC
:1003300020100804020180040201804020100804FB
:100340000201080402010102040810204080010299
:1003500004081020408000000A0B02090C0D0E0852
:10036000070304010000000000000000000000007E
:10037000000000000000000000000000000000007D
:10038000000012111000000000000000000000003A
:1003900000000000000000000000000043617264E3
:1003A0002052656164790043617264204661696C22
:1003B000757265004361726420526561647900530F
:1003C0006F667420526573657400547261636B20AC
:1003D00053656C6563740053746172742F53746F4A
:1003E000700044617461204C6F6767657200472D2F
:1003F000466F726365204C6F6E6700472D466F72C3
:100400006365204C617400456D70747900556E6BA6
:100410006E6F776E204D6F6E69746F7200537465E6
:100420006572696E6720416E676C650052504D00C1
:100430005370656564004272616B6520507265732C
:1004400073757265004272616B6500416363656C30
:1004500020506F736974696F6E005450530050617F
:1004600072616D6574657273005E044E035A045ABE
:10047000044B044B0445043604300430042C042C93
:10048000041D041D040D040D0407040704FB03FBF5
:1004900003EE03EE03E2034E03D703E2034E034EE3
:1004A000034E034E034E034E034E034E034E034EC4
:1004B000034E034E034E034E034E034E034E034EB4
:1004C00003CA034E034E034E034E034E034E034E28
:1004D000034E034E034E034E034E034E034E034E94
:1004E000034E034E034E034E034E034E03BF034E13
:1004F000034E034E034E034E034E034E034E034E74
:10050000034E034E034E034E034E034E034E034E63
:10051000034E034E034E034E032020002000002014
:10052000200020002020002020202020002020204B
:10053000200020202000200000006738B935112459
:100540001FBECFEFD1E2DEBFCDBF00E00CBF13E096
:10055000A0E0B2E0EAEAF9E800E00BBF02C00790D1
:100560000D92A03CB107D9F729E0A0ECB3E001C09F
:100570001D92A83DB207E1F712E0CEE9D2E000E01B
:1005800006C021970109802FFE010E94EE40CD395F
:10059000D10780E00807A9F70E94E1350C94C44414
:1005A0002FCD8F929F92AF92BF92CF92DF92EF9218
:1005B000FF920F931F93CF93DF93CDB7DEB7AA9728
:1005C0000FB6F894DEBF0FBECDBF0E94CB1F672BC6
:1005D000682B692B41F40E94CB1F623071058105A5
:1005E000910508F4F8C00E94CB1F6093000470933B
:1005F000010480930204909303040091FC03109182
:10060000FD032091FE033091FF03601771078207FD
:10061000930740F46093FC037093FD038093FE0303
:100620009093FF030091FC031091FD032091FE03C2
:100630003091FF034B015C01801A910AA20AB30AB0
:10064000950184010A3F11052105310508F4C3C055
:100650006093FC037093FD038093FE039093FF036C
:1006600084EF91E0A0E0B0E08093D1049093D204B5
:10067000A093D304B093D4041092D5041092D6045E
:100680001092D7041092D8048091C9049091CA04A2
:10069000A091CB04B091CC048093CD049093CE0470
:1006A000A093CF04B093D0040E94CB1F6093C904E1
:1006B0007093CA048093CB049093CC040E94CB1F08
:1006C0006B017C016AE872E0809105059091060556
:1006D0000E94A9302AE041E050E060E070E08091A3
:1006E0000505909106050E94482F61E972E080910E
:1006F0000505909106050E94A9302AE0B701A601E0
:1007000080910505909106050E94482F63E972E0EB
:1007100080910505909106050E94A9308091C90439
:100720009091CA04A091CB04B091CC04B701A6016A
:10073000481B590B6A0B7B0B2AE0809105059091B1
:1007400006050E94482F63E972E0809105059091AB
:1007500006050E94A9304091C9045091CA046091D5
:10076000CB047091CC048091CD049091CE04A091E3
:10077000CF04B091D004481B590B6A0B7B0B2AE0C5
:1007800080910505909106050E94482F65E972E069
:1007900080910505909106050E94A9300E94CB1F0B
:1007A000AB01BC012AE080910505909106050E94ED
:1007B000482F67E972E080910505909106050E9437
:1007C00098300E94CB1F6093C9047093CA04809331
:1007D000CB049093CC041092C8031092C7031092DC
:1007E000C6031092C503DD24D3941AE0E12EF12C48
:1007F0000FEF10E082E00E94F81F892B09F0F2C091
:100800008091000281110DC06091CF09862F846014
:100810008093CF096C6081EC99E00E947622D0929F
:1008200000020E94D91C80910E0490910F04A091A7
:100830001004B0911104823927E09207A105B10597
:10084000A1F48091C8038111CDC08091070444E6D2
:10085000849FC0011124B8010E94DB407093E7031C
:100860006093E603D092C803BDC0813D52E0950776
:10087000A105B10551F58091C7038111B3C08091E5
:10088000070490E0382F22273093C4032093C3033A
:1008900090910604892F90E09093C2038093C10346
:1008A000820F931FB4E095958795BA95E1F79093E1
:1008B000E5038093E40380910A0490E09093DF03C2
:1008C0008093DE03D092C7038DC08D3362E096071C
:1008D000A105B10509F046C08091C603811182C00F
:1008E0006091090470E0762F66277093C4036093CB
:1008F000C30390910804892F90E09093C2038093E2
:10090000C103680F791F072E000C880B990B0E94FA
:10091000763E2AE939E949E450E40E94D53E0E9436
:100920008E407093E3036093E2038091070474E6C2
:10093000879FC0011124B8010E94DB407093EB0334
:100940006093EA0380910604A4E68A9FC001112403
:10095000B8010E94DB407093E9036093E803D092F2
:10096000C60340C082309105A105B105F9F480911C
:10097000C503811137C08091060490E0982F882725
:100980009093C2038093C10320910504820F911DAF
:100990009093C4038093C303B7010E94DB4070931C
:1009A000E1036093E003D092C5031CC085329640FA
:1009B000A105B105B9F4809108048F77803111F059
:1009C000D092FB038091060480779091C00381113F
:1009D0004DC5992339F067E181EC99E00E947622B8
:1009E0001092C0038091C803811123C08091C70376
:1009F00081111FC08091C60381111BC08091C50366
:100A0000882309F4F7CE15C080910002882361F095
:100A10006091CF096B7F6093CF09686081EC99E0AA
:100A20000E9476221092000282E00E94F81F892B19
:100A300029F08091FB038111E7CF17C00E94D91CD8
:100A400080910E0490910F04A0911004B0911104B4
:100A500085329640A105B10561F7809108048F7732
:100A6000803139F71092FB03E4CF8BEA99E00E94C2
:100A7000D82185E999E00E94D8218FE799E00E946A
:100A8000D82189E699E00E94D8218091AE09811190
:100A900011C08091B009882369F08091C903811148
:100AA00009C00E940A1B80915C09882309F4E8C4EC
:100AB0000E94571C1092C9038091AE09813031F514
:100AC0008091B1099091B209A091B309B091B40994
:100AD0004091B9095091BA096091BB097091BC0964
:100AE000841B950BA60BB70B883E9340A105B1055F
:100AF00068F00E944D34E2E5F9E081E0819399E0ED
:100B0000EC35F907D9F781E08093C9038091980902
:100B100081110DC080919A09882349F00E940A1B17
:100B200080915C09882309F45BC50E94B21A809108
:100B30008209811118C0809184098823A1F00E9444
:100B40000A1B20915C098091610990916209211131
:100B5000A6C58130910509F4B0C58230910509F42C
:100B6000B1C597FFB3C580916C09811118C0809100
:100B70006E098823A1F00E940A1B80915C09E09114
:100B80006109F0916209882309F4A6C510926809E9
:100B9000109267093197F0936209E093610980919F
:100BA000610990916209019609F073C08091CF03A9
:100BB000082E000C990B04962091220430912304F6
:100BC00062E08217930794F483E10E940E1B62E0B7
:100BD00081EC99E00E94202163E083E10E940E1BDA
:100BE00061E081EC99E00E94202113C083E10E9422
:100BF0000E1B61E173E081EC99E00E94A93063E093
:100C000083E10E940E1B61E173E081EC99E00E9498
:100C1000A930809122049091230460E00597E4F0CC
:100C20008091CF031816C4F483E10E940E1B8091BB
:100C3000FA03882311F063E001C060E081EC99E0E1
:100C40000E94202161E083E10E940E1B62E081ECA2
:100C500099E00E9420211DC083E10E940E1B80911B
:100C6000FA03882331F063E081EC99E00E942021AF
:100C700006C061E173E081EC99E00E94A93061E077
:100C800083E10E940E1B61E173E081EC99E00E9418
:100C9000A93080915109882309F466C18091240408
:100CA000882309F409C18091FA038111D2C080918F
:100CB000F9038F938091F8038F938BEB92E09F93CE
:100CC0008F938CEE93E09F938F930E94FB410F9044
:100CD0000F900F900F900F900F907BEBE72E72E02C
:100CE000F72E0CEE13E08091F8039091F903019632
:100CF0009093F9038093F8039F938F93FF92EF9261
:100D00001F930F930E94FB4119821A8221E04CEE3F
:100D100053E06FE378E0CE0101960E94DA140F9061
:100D20000F900F900F900F900F908111DCCF60917A
:100D300012047091130423E64CEE53E088EF95E023
:100D40000E94DA1485E792E00E94131E6FE672E0BB
:100D500084EF95E00E94AB3000E010E080917C08C9
:100D600090917D080817190724F5E2E0F2E080E091
:100D700090E02191022E000C330B2017310791F4E3
:100D8000880F991FFC01EE5CFD4F6081718184EF3B
:100D900095E00E94A9306DE672E084EF95E00E9434
:100DA000AB3004C001968A30910519F70F5F1F4FD1
:100DB000D5CF84EF95E00E94943060E083E10E94FB
:100DC0000E1B63E081EC99E00E94202181E080937A
:100DD00000098093FA038091C2059091C3058D7F2D
:100DE000892BB9F581E090E09093C3058093C2050B
:100DF000E091CE05F091CF051995C090C605D09031
:100E0000C705E090C805F090C9050091CA0510918A
:100E1000CB052091CC053091CD0546015701801AB4
:100E2000910AA20AB30A95018401060F171F281F11
:100E3000391F0093C6051093C7052093C80530934A
:100E4000C9056093CA057093CB058093CC05909338
:100E5000CD058091C2059091C305019769F4E09199
:100E6000CE05F091CF0519956093CA057093CB0517
:100E70008093CC059093CD054091CA055091CB0548
:100E80006091CC057091CD058091C6059091C70504
:100E9000A091C805B091C905481B590B6A0B7B0B83
:100EA0002AE084EF95E00E94482F64EC72E084EF22
:100EB00095E00E94A93097C00E940A1B1A821982ED
:100EC0001C821B821E821D8260E672E0CE010196AA
:100ED0000E948C2DAE014F5F5F4F60E070E080E0BC
:100EE00090E00E94301BCE0101960E94FB2D1A82D9
:100EF00019821C821B821E821D8265E572E0CE0172
:100F000001960E948C2DAE014F5F5F4F61E070E053
:100F100080E090E00E94301BCE0101960E94FB2DE4
:100F20001A8219821C821B821E821D8265E472E075
:100F3000CE0101960E948C2DAE014F5F5F4F63E0A2
:100F400070E080E090E00E94301BCE0101960E948C
:100F5000FB2D109251096CEA7DE080E090E00E9448
:100F60004F210E940A1B3FC08091FA038823D9F1C8
:100F700088EF95E00E94D1148CE392E00E94131E4A
:100F8000109200098091C2059091C305019759F410
:100F900082E090E09093C3058093C205E091CE0576
:100FA000F091CF0519951092C3051092C2051092C9
:100FB000CA051092CB051092CC051092CD05109267
:100FC000C6051092C7051092C8051092C905109267
:100FD000FA0360E083E10E940E1B6AE372E081EC99
:100FE00099E00E94AB3042E3A42E42E0B42E52E0DE
:100FF000E52E52E0F52EC12CD12C99249A94F601BD
:10100000EE5AF64F8081882399F1D7018C9187FFA2
:1010100022C0F50160817181CE0101960E942D2EC2
:10102000BE016F5F7F4F8AE798E00E941435CE01C2
:1010300001960E94FB2D80917C088150D7018C93F2
:10104000809122049091230401969093230480932D
:1010500022040E94EA32809151098601015011094F
:10106000882309F434C48091F8058111D4C52FC4B4
:10107000F701408147FD29C0042E000C550B6AE79B
:1010800078E0CE0101960E948734CE0101960E943D
:10109000FB2DE2E0F2E0B2E0EC30FB0749F08081AA
:1010A000D7019C91981714F4815080833196F3CF27
:1010B00080912204909123040197909323048093BC
:1010C0002204F70190820E94EA32FFEFCF1ADF0A72
:1010D0002FEFE21AF20A42E0A40EB11C5AE0C51644
:1010E000D10409F08CCF60917C0870917D088091CB
:1010F000D4039091D5036817790789F080E00E94A6
:101100000E1B66E272E081EC99E00E94AB308091A8
:101110007C0890917D089093D5038093D4038091AF
:10112000CD039091CE032091CB033091CC03821755
:10113000930709F19093CC038093CB0320917C0813
:1011400030917D08A90143505109841795073CF45B
:1011500097FF0CC01092CE031092CD030CC0245008
:1011600031093093CE032093CD0302C08093CF0387
:1011700081E08093CA038091670990916809E091AA
:101180006509F091660920916309309164094091E5
:101190006109509162095093F8084093F708309321
:1011A000FA082093F908F093FC08E093FB08909369
:1011B000FE088093FD084F3F5F4F09F4CCC01BE051
:1011C000129FA001139F500D1124E40FF51FEE0F85
:1011D000FF1F8E0F9F1FFC01E757F74F8081843060
:1011E00009F090C0CE0101960E94C52EAE014F5F5E
:1011F0005F4F60E070E080E090E00E94301BCE0125
:1012000001960E94FB2DCE0101960E94412EAE0157
:101210004F5F5F4F61E070E080E090E00E94301B24
:10122000CE0101960E94FB2D6EE473E0CE01019683
:101230000E942D2E8091F9089091FA08189FF001D4
:10124000199FF00D11248091FB089091FC08E80F84
:10125000F91FEE0FFF1F8091FD089091FE08E80F27
:10126000F91FE757F74F8081843069F48091600956
:10127000823019F469E477E402C069E279E0CE01D2
:1012800001960E94D12DAE014F5F5F4F62E070E08A
:1012900080E090E00E94301BCE0101960E94FB2D61
:1012A0006EE473E0CE0101960E942D2E8091F90824
:1012B0009091FA082BE0289FF001299FF00D11244E
:1012C0008091FB089091FC08E80FF91FEE0FFF1FBB
:1012D0008091FD089091FE08E80FF91FE757F74F3E
:1012E0008081843009F0B4C080916009833019F4A2
:1012F0006DE577E402C06DE379E0CE0101960E94CE
:10130000D12DA6C0CE0181960E94C52ECE01019698
:101310000E94C52E2D813E8136952795AE014F5DE9
:101320005F4F60E070E08AE090E0821B930B0E94C8
:10133000301BCE0101960E94FB2DCE0181960E94AA
:10134000FB2DCE0101960E94412EAE014F5F5F4FF3
:1013500061E070E082C00E94CB1FDC01CB01AA27B4
:10136000BB270091D0031091D1032091D20330917B
:10137000D3034C015D01801A910AA20AB30A9501B8
:101380008401023811052105310508F401C7809355
:10139000D0039093D103A093D203B093D303409191
:1013A000CF03042E000C550B6AE778E0CE010196BE
:1013B0000E944318AE014F5F5F4F60E070E080E035
:1013C00090E00E94301BCE0101960E94FB2D4091BF
:1013D000CF03042E000C550B4F5F5F4F6AE778E098
:1013E000CE0101960E944318AE014F5F5F4F61E04E
:1013F00070E080E090E00E94301BCE0101960E94D8
:10140000FB2D4091CF03042E000C550B4E5F5F4F18
:101410006AE778E0CE0101960E944318AE014F5F63
:101420005F4F62E070E080E090E00E94301BCE01F0
:1014300001960E94FB2D4091CF03042E000C550B0A
:101440004D5F5F4F6AE778E0CE0101960E94431836
:10145000AE014F5F5F4F63E070E080E090E00E947C
:10146000301BCE0101960E94FB2D92C69111BACA83
:1014700063E181EC99E00E947622D092C003B2CA67
:10148000E0916709F091680980916509909166097A
:1014900040916309509164092BE0249FD001259F5E
:1014A000B00D1124A80FB91FAA0FBB1FAE0FBF1F8D
:1014B000A757B74F2C91243029F40E94571C0E9443
:1014C000541AF8CA20916109309162092115310539
:1014D000C1F07CF42F3F3F4F09F0ECCA2091CD03BF
:1014E0003091CE03215031093093CE032093CD03A8
:1014F00008C02130310551F12230310509F44AC0CC
:10150000D9CAA0918708B09188082D913C912150AB
:101510003109421753070CF0CDCA4F5F5F4F6BE0A4
:10152000649F9001659F300D1124820F931F880FD7
:10153000991FE80FF91FE757F74F80818F3F09F494
:10154000B9CA5093640940936309B4CAA09187084B
:10155000B091880812962D913C91139782179307AA
:101560000CF0A8CA01966BE0649F9001659F300D56
:101570001124280F391F220F331FE20FF31FE757E3
:10158000F74F20812F3F09F495CA90936609809305
:10159000650990CAA0918708B091880814962D918A
:1015A0003C911597E217F3070CF084CA9F012F5F57
:1015B0003F4F6BE0649FF001659FF00D1124E80F31
:1015C000F91FEE0FFF1FE20FF31FE757F74F808160
:1015D0008F3F09F46FCA30936809209367096ACA7C
:1015E0008091670990916809209165093091660999
:1015F00040916309509164096BE0649FF001659F1D
:10160000F00D1124E20FF31FEE0FFF1FE80FF91F7B
:10161000E757F74F6081643029F40E94B21A0E94A4
:10162000541A85CA6091610970916209611571054A
:10163000B1F074F46F3F7F4F09F079CA8091CD0308
:101640009091CE0301969093CE038093CD0307C073
:101650006130710579F062307105B9F068CA4115E1
:10166000510509F464CA41505109509364094093EB
:1016700063095DCA2130310509F459CA2150310985
:10168000309366092093650952CA8130910509F4A7
:101690004ECA0197909368098093670948CA8130C0
:1016A000910559F08230910569F0009709F059CA07
:1016B000109264091092630909C010926609109291
:1016C000650904C010926809109267090197909308
:1016D00062098093610947CA2091630930916409C6
:1016E0008BE0829FD001839FB00D1124809165090A
:1016F00090916609A80FB91FAA0FBB1F80916709B7
:1017000090916809A80FB91FA757B74F8C918330E4
:10171000A1F4E130F10509F4B1C00CF0AFC0EF3F26
:10172000BFEFFB0709F43BCA309709F0A7C023308D
:10173000310509F0A3C01995A1C0843009F0A1C0FA
:10174000E130F10551F02CF4EF3FFF4F0CF027CAC8
:1017500095C0329709F092C049C02230310509F096
:101760008DC06EE972E088E196E00E94293110E0B8
:101770006FE378E084ED95E00E9454328823D9F03D
:101780001F5F412F50E060E070E02AE086E294E0C5
:101790000E94482F65EA72E086E294E00E94A93038
:1017A0000E948C1B86E294E00E94943084ED95E0C8
:1017B0000E94D114DDCF68EA72E088E196E00E94D1
:1017C000293140E050E0BA018FE398E00E94FB2607
:1017D00010935E090E94541A8091610990916209E8
:1017E00001969093620980936109D9C9223031052D
:1017F00009F044C020915F098091600990E0820F58
:10180000911D892BD9F16EE972E088E196E00E9482
:1018100029311EEF6FE378E084ED95E00E945432A9
:101820008823F9F01F5F212F30E040915F098091FC
:10183000600990E0840F911D2817390769F46AEA5E
:1018400072E086E294E00E94A9300E948C1B86E23E
:1018500094E00E94943005C084ED95E00E94D1147C
:10186000D9CF68EA72E088E196E00E94293140E031
:1018700050E0BA018FE398E00E94FB260E944D34AD
:101880008EC9E330F1052CF43196F0936209E093B0
:10189000610980916109909162098130910559F047
:1018A0008230910569F0892B09F079C91092640999
:1018B0001092630974C990936609809365096FC992
:1018C00081E090E0909368098093670968C90930C6
:1018D000110508F45CC06091EA037091EB03072ED8
:1018E000000C880B990B0E94763E9B01AC0166ECC4
:1018F00072E0CE0101962FA338A749A75AA70E94EC
:101900002D2E00E02FA138A549A55AA5BE016F5F75
:101910007F4FCE0181960E940E336091020224C057
:101920006091E8037091E903072E000C880B990B76
:101930000E94763E9B01AC0161ED72E0CE01019602
:101940002FA338A749A75AA70E942D2E00E02FA148
:1019500038A549A55AA5BE016F5F7F4FCE0181967C
:101960000E940E3360910302062E000C770BAE012D
:101970004F5D5F4F8AE798E00E94FF34CE01819669
:101980000E94FB2DCE0101960E94FB2D9ECBF801FB
:101990008827EE58FF4F8F4F0C94EE406091E6037E
:1019A0007091E703072E000C880B990B0E94763E7E
:1019B0009B01AC016CED72E0CE0101962FA338A71C
:1019C00049A75AA70E942D2E00E02FA138A549A5AE
:1019D0005AA5BE016F5F7F4FCE0181960E940E33E4
:1019E00060910402C1CF6091E4037091E503072E7A
:1019F000000C880B990B0E94763E9B01AC0167EEB0
:101A000072E0CE0101962FA338A749A75AA70E94DA
:101A10002D2E00E02FA138A549A55AA5BE016F5F64
:101A20007F4FCE0181960E940E33609105029CCFBC
:101A30006091E2037091E303072E000C880B990B71
:101A40000E94763E9B01AC0162EF72E0CE010196EE
:101A50002FA338A749A75AA70E942D2E00E02FA137
:101A600038A549A55AA5BE016F5F7F4FCE0181966B
:101A70000E940E336091060277CF6091E00370916F
:101A8000E103072E000C880B990B0E94763E9B0108
:101A9000AC016DEF72E0CE0101962FA338A749A7E4
:101AA0005AA70E942D2E00E02FA138A549A55AA5BE
:101AB000BE016F5F7F4FCE0181960E940E33609111
:101AC000070252CF6091DE037091DF03072E000CF6
:101AD000880B990B0E94763E9B01AC0168E073E095
:101AE000CE0101962FA338A749A75AA70E942D2EF1
:101AF00000E02FA138A549A55AA5BE016F5F7F4F11
:101B0000CE0181960E940E33609108022DCF63E1D1
:101B100073E0CE0101960E942D2E00E020E030E01F
:101B2000A901BE016F5F7F4FCE0181960E940E33E7
:101B30006091090219CF80E40E942A21BC01990F0B
:101B4000880B990B0E94763E20E030E04FEF53E483
:101B50000E94C13F20E030E040E951E40E9426406D
:101B60009B01AC016093DA037093DB038093DC0389
:101B70009093DD0362E273E0CE0101962FA338A7B4
:101B800049A75AA70E942D2E01E02FA138A549A5EB
:101B90005AA5BE016F5F7F4FCE0181960E940E3322
:101BA00060910A02E1CE81E40E942A21BC01990FD2
:101BB000880B990B0E94763E20E030E84DEF53E40D
:101BC0000E94C13F20E030E048E951E40E942640F5
:101BD0009B01AC016093D6037093D7038093D80325
:101BE0009093D9036DE273E0CE0101962FA338A73D
:101BF00049A75AA70E942D2E01E02FA138A549A57B
:101C00005AA5BE016F5F7F4FCE0181960E940E33B1
:101C100060910B02A9CE60E083E10E940E1B63E09D
:101C200081EC99E00E9420210930110508F455C08B
:101C30006091EA037091EB03072E000C880B990B5F
:101C40000E94763E9B01AC0166EC72E0CE010196EB
:101C50002FA338A749A75AA70E942D2E00E02FA135
:101C600038A549A55AA5BE016F5F7F4FCE01819669
:101C70000E940E3360910202062E000C770BAE011B
:101C80004F5D5F4F8AE798E00E94FF34CE01819656
:101C90000E94FB2DCE0101960E94FB2D8091EA034C
:101CA0009091EB030E94593020910202022E000C09
:101CB000330B80917C0890917D0801972817390794
:101CC00029F484EF95E00E949430FFC964EC72E03F
:101CD00084EF95E00E94A930F8C9F8018827E558FB
:101CE000FF4F8F4F0C94EE406091E8037091E90331
:101CF000072E000C880B990B0E94763E9B01AC01CD
:101D000061ED72E0CE0101962FA338A749A75AA72B
:101D10000E942D2E00E02FA138A549A55AA5BE018D
:101D20006F5F7F4FCE0181960E940E336091030258
:101D3000062E000C770BAE014F5D5F4F8AE798E0EF
:101D40000E94FF34CE0181960E94FB2DCE010196A8
:101D50000E94FB2D8091E8039091E9030E94593085
:101D600020910302A3CF6091E6037091E703072E51
:101D7000000C880B990B0E94763E9B01AC016CED28
:101D800072E0CE0101962FA338A749A75AA70E9457
:101D90002D2E00E02FA138A549A55AA5BE016F5FE1
:101DA0007F4FCE0181960E940E3360910402062E71
:101DB000000C770BAE014F5D5F4F8AE798E00E9401
:101DC000FF34CE0181960E94FB2DCE0101960E9428
:101DD000FB2D8091E6039091E7030E9459302091FA
:101DE000040264CF6091E4037091E503072E000CB8
:101DF000880B990B0E94763E9B01AC0167EE72E066
:101E0000CE0101962FA338A749A75AA70E942D2ECD
:101E100000E02FA138A549A55AA5BE016F5F7F4FED
:101E2000CE0181960E940E3360910502062E000CB1
:101E3000770BAE014F5D5F4F8AE798E00E94FF3459
:101E4000CE0181960E94FB2DCE0101960E94FB2DB2
:101E50008091E4039091E5030E945930209105029E
:101E600025CF6091E2037091E303072E000C880BED
:101E7000990B0E94763E9B01AC0162EF72E0CE01AD
:101E800001962FA338A749A75AA70E942D2E00E03C
:101E90002FA138A549A55AA5BE016F5F7F4FCE017E
:101EA00081960E940E3360910602062E000C770B7D
:101EB000AE014F5D5F4F8AE798E00E94FF34CE018C
:101EC00081960E94FB2DCE0101960E94FB2D8091F0
:101ED000E2039091E3030E94593020910602E6CE7E
:101EE0006091E0037091E103072E000C880B990BC1
:101EF0000E94763E9B01AC016DEF72E0CE0101962F
:101F00002FA338A749A75AA70E942D2E00E02FA182
:101F100038A549A55AA5BE016F5F7F4FCE018196B6
:101F20000E940E3360910702062E000C770BAE0163
:101F30004F5D5F4F8AE798E00E94FF34CE018196A3
:101F40000E94FB2DCE0101960E94FB2D8091E003A3
:101F50009091E1030E94593020910702A7CE609131
:101F6000DE037091DF03072E000C880B990B0E9493
:101F7000763E9B01AC0168E073E0CE0101962FA391
:101F800038A749A75AA70E942D2E00E02FA138A5F7
:101F900049A55AA5BE016F5F7F4FCE0181960E9471
:101FA0000E3360910802062E000C770BAE014F5DD8
:101FB0005F4F8AE798E00E94FF34CE0181960E942D
:101FC000FB2DCE0101960E94FB2D8091DE039091A6
:101FD000DF030E9459302091080268CE63E173E06C
:101FE000CE0101960E942D2E00E020E030E0A901F4
:101FF000BE016F5F7F4FCE0181960E940E336091CC
:102000000902062E000C770BAE014F5D5F4F8AE789
:1020100098E00E94FF34CE0181960E94FB2DCE01F4
:1020200001960E94FB2D6EE173E084EF95E00E9423
:10203000A930209109023ACE80E40E942A21BC01F5
:10204000990F880B990B0E94763E20E030E04FEF0D
:1020500053E40E94C13F20E030E040E951E40E9497
:1020600026409B01AC016093DA037093DB038093FD
:10207000DC039093DD0362E273E0CE0101962FA3AF
:1020800038A749A75AA70E942D2E01E02FA138A5F5
:1020900049A55AA5BE016F5F7F4FCE0181960E9470
:1020A0000E3360910A02062E000C770BAE014F5DD5
:1020B0005F4F8AE798E00E94FF34CE0181960E942C
:1020C000FB2DCE0101960E94FB2D6091DA037091E9
:1020D000DB038091DC039091DD030E94912F20911E
:1020E0000A02E4CD81E40E942A21BC01990F880BE9
:1020F000990B0E94763E20E030E84DEF53E40E94B9
:10210000C13F20E030E048E951E40E9426409B01B5
:10211000AC016093D6037093D7038093D803909358
:10212000D9036DE273E0CE0101962FA338A749A72A
:102130005AA70E942D2E01E02FA138A549A55AA526
:10214000BE016F5F7F4FCE0181960E940E3360917A
:102150000B02062E000C770BAE014F5D5F4F8AE736
:1021600098E00E94FF34CE0181960E94FB2DCE01A3
:1021700001960E94FB2D6091D6037091D703809148
:10218000D8039091D9030E94912F20910B028ECDFC
:10219000AA960FB6F894DEBF0FBECDBFDF91CF91E8
:1021A0001F910F91FF90EF90DF90CF90BF90AF9075
:1021B0009F908F9008950F931F93CF93DF93EC011F
:1021C0008B016E817F816115710551F0CE01F8019F
:1021D00019951816190624F00E80DF81C02DF1CF55
:1021E000CE01DF91CF911F910F9108954F925F9291
:1021F0006F927F928F929F92AF92BF92CF92DF9217
:10220000EF92FF920F931F93CF93DF93DC0112960F
:102210002D913C911397223031050CF472C05B0173
:102220006C012C01B4E04B0E511C7201D701CD9111
:10223000DC912097D1F3B501CE01BDDF4C01FC014B
:10224000068117810115110559F4E414F50469F7A5
:10225000D60117969C938E9316971C961C9251C08C
:10226000B501C801A8DFFC0166807780D40117960C
:102270001C921E92169717821682B801CE01F501A4
:102280001995181619068CF0D701CD93DC937E01B1
:10229000B6E0EB0EF11C0E80DF81C02D209769F7B0
:1022A000F801D7010D931C931FC0F7011183008320
:1022B0007801F6E0EF0EF11CD80116960D911C91F5
:1022C000179701151105C9F6F701D183C0838E81D7
:1022D0009F81009711F0EC01FACF7F826E827E0120
:1022E000F6E0EF0EF11CA2CF86819781009711F0E6
:1022F000FC01FACF778266827F0186E0E80EF11C4E
:1023000095CFDF91CF911F910F91FF90EF90DF90CC
:10231000CF90BF90AF909F908F907F906F905F9085
:102320004F9008950E94CB1F28EE33E040E050E02C
:102330000E949F3FCA01B90108950F931F93CF9345
:10234000DF9300D000D0CDB7DEB78C01D801ED917E
:10235000FC910190F081E02DC8011995181619061D
:102360007CF4D801ED91FC910684F785E02DB8014D
:10237000CE0101961995CE0101960E94FB2DE6CF64
:1023800026960FB6F894DEBF0FBECDBFDF91CF917A
:102390001F910F910895AF92BF92CF92DF92EF926B
:1023A000FF920F931F93CF93DF9300D000D0CDB750
:1023B000DEB77C018B01DB0112968D919C91139706
:1023C0001816190634F06EE473E0C7010E942D2E32
:1023D0003DC0019799F1FB0164817581DB0116967F
:1023E000AD90BC901797CE0101960E94252EF80162
:1023F000C480D580C114D10431F0C6010E94FB2DE8
:10240000C6010E94303BD8011596BC92AE9214973B
:1024100012968D919C911397019713969C938E938E
:1024200012971C961C92BE016F5F7F4FC7010E94DE
:10243000002ECE0101960E94FB2D08C0DB01ED911C
:10244000FC910484F585E02DC7011995C7012696F6
:102450000FB6F894DEBF0FBECDBFDF91CF911F91B5
:102460000F91FF90EF90DF90CF90BF90AF900895C5
:10247000CF92DF92EF92FF920F931F93CF93DF9350
:1024800000D000D0CDB7DEB78C016B01DC01129615
:102490008D919C911397892BA1F4ED91FC91E4808F
:1024A000F580CE0101960E94252EBE016F5F7F4F01
:1024B000C801F7011995182FCE0101960E94FB2D36
:1024C00025C088E090E00E949B3A7C0188E0D7011B
:1024D0001D928A95E9F76EE473E0C7010E942D2EE4
:1024E000F80184819581D70117969C938E93169756
:1024F000B601C7010E94E62DF801F582E4828281CF
:102500009381019693838283148611E0812F26960E
:102510000FB6F894DEBF0FBECDBFDF91CF911F91F4
:102520000F91FF90EF90DF90CF900895CF92DF92C0
:10253000EF92FF920F931F93CF93DF93EC01862FBF
:10254000488959896A897B898A019B01E5E036952A
:10255000279517950795EA95D1F7102F1F7011F061
:10256000811151C098819923D9F18A8180FF38C0A7
:1025700093FF63C0C88CD98CEA8CFB8CC41AD50A33
:10258000E60AF70A22E0C216D104E104F10408F4D5
:102590004EC09A01317095FD61C0EE81FF810381CB
:1025A0006A017B0189E0F694E794D794C7948A95F1
:1025B000D1F70C21232B09F07EC001117CC0452BE3
:1025C000462B472B09F45CC04C855D856E857F8565
:1025D0009E01245F3F4FCF010E94FA2587FF60C014
:1025E0008981826089838FEF9FEF0197E9F4888961
:1025F0009989AA89BB894F96A11DB11D888B998B9A
:10260000AA8BBB8B08C0405E5F4F6F4F7F4F488BDC
:10261000598B6A8B7B8B8E819F81879620E2129FDC
:10262000800D911D112480C080E090E07DC0CD28F8
:10263000CE28CF2809F0ADCF0EC095FFAACFEE81EE
:10264000FF818681978125E0880F991F2A95E1F700
:102650008417950719F480E090E061C099E07695C1
:102660006795579547959A95D1F7EE81FF81848DAF
:10267000958DA68DB78D480F591F6A1F7B1F39C0D6
:1026800096FF05C0848D958DA68DB78D04C08C8D69
:102690009D8DAE8DBF8D8C879D87AE87BF870BC00C
:1026A000811109C08881807709F49ACF81E090E098
:1026B00021E030E036C0EE81FF814C855D856E857E
:1026C0007F854250510961097109048004C0440F9B
:1026D000551F661F771F0A94D2F780899189A289B6
:1026E000B389480F591F6A1F7B1F400F511D611D81
:1026F000711D8E819F8120E080960E94BC25892BD0
:1027000009F46ECF88899989AA89BB890196A11D90
:10271000B11D888B998BAA8BBB8B81E090E020E068
:1027200030E0821B930B61CFDF91CF911F910F910E
:10273000FF90EF90DF90CF900895FC018081811190
:1027400014C080E2DF01982F1D929A95E9F77783F4
:102750006683DB0115969C91903119F0903229F433
:1027600080E4808381E08283089580E008956F9201
:102770007F928F929F92AF92BF92CF92DF92EF9211
:10278000FF920F931F93CF93DF9300D01F92CDB78B
:10279000DEB77C01722E80E2D7011D928A95E9F79F
:1027A000FB01C680D780D7011796DC92CE92169790
:1027B00015965C934E931497848D958DA68DB78D49
:1027C000F70180879187A287B3874F705527D6017D
:1027D000979695E0440F551F9A95E1F7A40FB51F02
:1027E0001B968C911B9783FF04C0D7011C9280E03D
:1027F00097C0F601E40FF51F82A98771F701808366
:102800001B969C91987111F488608083D701139670
:102810000C931397872D827319F08C91817129F78E
:10282000872D8F70F7018283F60183A194A1A5A162
:10283000B6A1F701848B958BA68BB78BF601E40FBD
:10284000F51F83AC94ACA12CB12CB40155274427BF
:102850009F012F5B3F4FD9018D909C90A12CB12CF3
:10286000842A952AA62AB72A74FE33C081149104BB
:10287000A104B10409F44EC09E012F5F3F4FB50182
:10288000A401C6010E94FA25682E87FDAECF00E0A4
:1028900010E09801B501A401C6010E940B24882311
:1028A00009F4A3CFF60140855185628573858416AE
:1028B0009506A606B70620F480869186A286B38682
:1028C00089809A80AB80BC806110D6CF811122C0F4
:1028D0008CCFD7015C968D929D92AD92BC925F9702
:1028E000ED5BFF4F80819181A281B381F701808FE1
:1028F000918FA28FB38F75FE12C0D70158964D915C
:102900005D916D917C915B97C7010E94FB268111BF
:1029100006C06BCFF701828180688283ECCF81E0B3
:102920000F900F900F900F90DF91CF911F910F910B
:10293000FF90EF90DF90CF90BF90AF909F908F90DF
:102940007F906F900895CF93DF93DC01FC0190E0BE
:1029500048E080E05EE220812032C1F0983031F41E
:10296000EB01C80FD11D58838F5F40E120813FEB01
:10297000320F3A3130F41C963C911C97342309F005
:10298000205EEB01C80FD11D28838F5F9F5F3196BA
:102990009B3009F7FB01E80FF11D1082DF91CF9109
:1029A0000895CF93DF93EC010E94C0261882DF9137
:1029B000CF9108952F923F924F925F926F927F92A4
:1029C0008F929F92AF92BF92CF92DF92EF92FF923F
:1029D0000F931F93CF93DF93CDB7DEB7E4970FB676
:1029E000F894DEBF0FBECDBF6C017A01922E198222
:1029F0001A82DC018C91811168C1FB018081807792
:102A000009F463C1FA0180818F32B9F47F018191A9
:102A10008F32E1F3DB0116966D917C91179781114E
:102A200003C0C6018ADE56C1CE01019686DE882328
:102A300009F44BC1BE016F5F7F4F5E01B2E3AB0E85
:102A4000B11CF7012FEFE21AF20A80818032C9F33C
:102A5000FDA3ECA3DF019D012E1B3F0B8D9188236D
:102A6000D9F08F32C9F08C3509F42FC1982F977F98
:102A7000923209F42AC18A3309F427C1982F9F7B27
:102A80009C3309F422C192EC980F923008F41DC1D6
:102A900080528F3500F319C1AF01420F531FCA0195
:102AA0007C01DC012D91CD012AAB2032C9F32F32FC
:102AB000B9F39A012E1B3F0B4E175F0741F0DA0165
:102AC0009E91AD019E32A9F3903299F303C080E04C
:102AD00090E006C0C9012F3F310511F00CF0F5C0A0
:102AE0009BA38AA3DE01979620E22D93AA15BB052E
:102AF000D9F7DF019D012E1B3F0B4D914E32D1F3D3
:102B00004032C1F33CAB2BAB51E0232B09F050E03A
:102B10008C010150110938F09F01200F311FD9019C
:102B20002C912E32B1F76EA027E0722E312C512C51
:102B3000812C38E0432EABA9BCA9A817B9070CF02B
:102B400080C02BA93CA92E0F3F1FD9014C914032C8
:102B500009F460C04E3239F42BA93CA902171307BF
:102B600009F058C004C04232A1F04C3791F026ED74
:102B7000240F263010F44D3261F426EC240F263059
:102B800040F025EA240F233020F02FED240F2E35BE
:102B900030F0ABA9BCA9A017B10781F43FC02BA9A5
:102BA0003CA920173107D1F1731410F1242F3FE90C
:102BB000340F3A3140F44052842809C07314C0F0F5
:102BC00050E04FE52FE521542A3108F454282224FF
:102BD0002394230C27E230E02C0F3D1F230D311DE1
:102BE000D9014C93B6E0B215B8F0622C322C22C059
:102BF0003AE0731609F46BC0ABA9BCA90A171B070E
:102C00000CF465C01CAB0BAB5AE0752EA8E03A2E55
:102C1000B0E14B2E50E00EC0322C0CC02AE07216F0
:102C200009F455C01CAB0BAB2AE0722E38E0332EF2
:102C300040E1442E2BA93CA92F5F3F4F3CAB2BAB6F
:102C40007ACF6EA28FA1803209F43FC0552339F0AC
:102C5000582011F4882D01C082E089A314C081E0BE
:102C600089A38EA190E0E7E2F0E0EC0FFD1FE80FF2
:102C7000F91F2EE72083E8E2F0E0EC0FFD1FE80FDC
:102C8000F91F21E32083FAA9FF23B9F021E0AE0167
:102C90004F5D5F4FC6010E94BE278823B1F0F60149
:102CA000DE01119680E201900D928A95E1F7C6014E
:102CB00078DEBE016F5F7F4FC4CE292DAE014F5D20
:102CC0005F4FC6010E94BE2705C080E003C06EA210
:102CD00050E0B8CFE4960FB6F894DEBF0FBECDBF7C
:102CE000DF91CF911F910F91FF90EF90DF90CF90E8
:102CF000BF90AF909F908F907F906F905F904F901C
:102D00003F902F900895CF93DF93EC01262F4C89AD
:102D10005D896E897F898E819F8180960E94BC2506
:102D2000009761F02C813D812F70332745E0220F01
:102D3000331F4A95E1F7820F931F02C080E090E0B5
:102D4000DF91CF9108953F924F925F926F927F9261
:102D50008F929F92AF92BF92CF92DF92EF92FF92AB
:102D60000F931F93CF93DF93CDB7DEB728970FB69E
:102D7000F894DEBF0FBECDBF4C01DC0112968C91E2
:102D80001297806812968C9312971C964D905D90C6
:102D90006D907C901F971696AD90BC90179741143C
:102DA00051046104710461F4D50118968D919D91CF
:102DB0000D90BC91A02D8D839E83AF83B88704C0F6
:102DC0004D825E826F827886CD80DE80EF80F884CF
:102DD000BFEFCB1ADB0AEB0AFB0AF501808D918D60
:102DE000A28DB38D8C159D05AE05BF0528F482E03C
:102DF000C82ED12CE12CF12C9E012F5F3F4FB70143
:102E0000A601C5010E94FA2587FD20C0882341F054
:102E100089819A81AB81BC81892B8A2B8B2B51F0C4
:102E20008D819E81AF81B885C816D906EA06FB065A
:102E300079F60CC00FEF1FEF2FEF3FE0B701A601AF
:102E4000C5010E940B24382E811102C0312C1BC0F9
:102E5000411451046104710451F097018601B301DA
:102E6000A201C5010E940B24811108C0EFCFD5013A
:102E70001896CD92DD92ED92FC921B97F401C486D8
:102E8000D586E686F786832D28960FB6F894DEBFA2
:102E90000FBECDBFDF91CF911F910F91FF90EF90AB
:102EA000DF90CF90BF90AF909F908F907F906F906A
:102EB0005F904F903F900895CF93CFB7F894809153
:102EC0000404811127C0EFEFF2E08491E5E4F3E020
:102ED0009491E82FF0E0EE0FFF1FE458FD4FA5910D
:102EE000B491EC91E92321F461E085E30E94202074
:102EF00061E085E30E945E208CB580618CBD8CB55D
:102F000080648CBD61E084E30E945E2061E083E325
:102F10000E945E20809104048F5F80930404CFBFE1
:102F2000CF910895DC011496ED91FC9115971C96B4
:102F30008C911C97882361F01A962D913C911B97D8
:102F4000621773072CF01896ED91FC9119970AC03F
:102F500020E030E007C03097C9F00680F781E02D0F
:102F60002F5F3F4F26173707B4F32617370771F443
:102F700081E01C968C931C971B963C932E931A977A
:102F80001996FC93EE931897CF01089580E090E096
:102F90000895AF92BF92CF92DF92EF92FF920F937C
:102FA0001F93CF93DF9300D000D0CDB7DEB77C0165
:102FB0008B01FB0162817381161617062CF06EE4FB
:102FC00073E00E942D2E4DC0F8011486613071050A
:102FD00021F162507109C801A5DF6C01FC01668115
:102FE0007781CE0101960E94252EF601A680B7803A
:102FF000A114B10431F0C5010E94FB2DC5010E944E
:10300000303BF60117821682F801D782C682828190
:1030100093810197938382831AC0F801648175813B
:10302000CE0101960E94252EF801C480D580C114DE
:10303000D10431F0C6010E94FB2DC6010E94303B35
:10304000F801158214821782168213821282BE0141
:103050006F5F7F4FC7010E94002ECE0101960E9434
:10306000FB2DC70126960FB6F894DEBF0FBECDBF6D
:10307000DF91CF911F910F91FF90EF90DF90CF9054
:10308000BF90AF900895CF93DF93EC01CB01BA01CD
:1030900049DF009729F0BC01CE010E94252E05C012
:1030A0006EE473E0CE010E942D2ECE01DF91CF9110
:1030B00008958F929F92AF92BF92CF92DF92EF923C
:1030C000FF92CF93C82F10921D0681E090E0A0E000
:1030D000B0E08093200690932106A0932206B0933F
:1030E000230688E196E090933A0680933906109281
:1030F00038068FEF9FEFDC0180933B0690933C06F0
:10310000A0933D06B0933E06CC2331F1C53008F0C4
:10311000DCC020E040E050E0BA0188E396E00E9485
:10312000BC25009709F4D1C020E1C29F800D911DFC
:1031300011244097FC01E254FE4F20812F7709F0C3
:10314000C4C0389680809180A280B380811491049D
:10315000A104B10421F4B9C0812C912C540120E0C8
:10316000B501A40188E396E00E94BC25FC01892BEF
:1031700009F4ABC0838594858115924009F0A5C000
:103180008089823009F0A1C04685578541155105D7
:1031900009F49BC0258520931A068FEF820F809338
:1031A0001B0680E091E0291751F031E0380F3930EB
:1031B00019F480931C0689C0990F832FF4CF809354
:1031C0001C06C688D788C114D10419F0E12CF12C53
:1031D00004C0C4A0D5A0E6A0F7A0C0922406D09257
:1031E0002506E0922606F0922706D501C401840F39
:1031F000951FA11DB11D80932C0690932D06A093C1
:103200002E06B0932F062189328930931F06209312
:103210001E06CC0CDD1CEE1CFF1CC80ED91EEA1EBF
:10322000FB1EC0923406D0923506E0923606F0922C
:10323000370655E0220F331F5A95E1F721503E4FD4
:10324000232F33272695C20ED31EE11CF11CC092FA
:103250002806D0922906E0922A06F0922B062389AE
:1032600034892115310521F0C901A0E0B0E004C086
:1032700080A191A1A2A1B3A1B501A4014C195D093E
:103280006E097F09480F591F6A1F7B1F00901C069B
:1032900004C076956795579547950A94D2F7DB0158
:1032A000CA010196A11DB11D80933006909331068D
:1032B000A0933206B0933306453F8FE0580761056F
:1032C000710528F48CE080931D0680E017C0453F0F
:1032D0005F4F6105710510F480E10DC084A595A5CF
:1032E000A6A5B7A58093340690933506A09336061D
:1032F000B093370680E280931D0681E0CF91FF9066
:10330000EF90DF90CF90BF90AF909F908F900895F7
:10331000CF92DF92FF920F931F93CF93DF931F9271
:10332000CDB7DEB7F82E162F042F60E08091780815
:10333000798386D683E00E94D1218F2D0E94D121EE
:10334000F12EC12E7981D72E8C2D8F19801738F44C
:1033500080E00E94D121F60181936F01F5CF61E0F9
:10336000809178080F90DF91CF911F910F91FF907E
:10337000DF90CF9065C61F93CF93DF93182FC8E6D9
:10338000D8E060E088895CD683E00E94D121812F5B
:103390000E94D12180E00E94D121182F61E088890C
:1033A0004FD6812FDF91CF911F9108950F931F93D7
:1033B000CF93DF9300D01F92CDB7DEB7182F1092B6
:1033C00068081092690810926A0810926B081092AF
:1033D0006C0844E0BE016F5F7F4F9ADF8A8199815C
:1033E000482F50E065E0559547956A95E1F728E04C
:1033F000929F400D511D1124052E000C660B770B7A
:103400004093690850936A0860936B0870936C0846
:1034100083FF29C092E0440F551F661F771F9A95BE
:10342000D1F78370480F511D611D711D762F652FD7
:10343000542F44278B81480F511D611D711D762F1C
:10344000652F542F44278C81480F511D611D711D1C
:103450004093690850936A0860936B0870936C08F6
:1034600081E0809368088FEF810F85DF082F84E06B
:10347000810F81DF482F03FF04C081E0809376082D
:1034800002C0109276084F7040936D086EE678E0A7
:1034900085E0810F3DDF0F900F900F900F90DF912F
:1034A000CF911F910F9108950F931F93CF93DF93A7
:1034B0006EE972E088E196E00E942931C0915E09D0
:1034C000C43008F0C4E0D0916009D1112CC068E389
:1034D00073E081E099E00E94F44105E119E0D1E058
:1034E000DC1780F46FE378E084ED95E00E945432BD
:1034F000C8010E946F3184ED95E053DADF5F0C5E06
:103500001F4FEECF40E050E0BA018FE398E00E94F9
:10351000FB2668EA72E088E196E0DF91CF911F9187
:103520000F910C9429316FE378E084ED95E00E94CF
:10353000543284ED95E035DAD150A9F701E019E075
:10354000DC1701F36FE378E084ED95E00E945432DC
:10355000C8010E946F3184ED95E023DADF5F0C5ED5
:103560001F4FEECF2091F9083091FA088091FB08A7
:103570009091FC084BE0429FF001439FF00D112415
:10358000E80FF91FEE0FFF1F4091FD085091FE0854
:10359000E40FF51FE757F74F40814430A9F48091BD
:1035A0006009833021F08F5F8093600908958093D4
:1035B000600980915F09882319F0815080935F0929
:1035C00020915F0930E024C02115310591F440912C
:1035D000000941111DC04091FF088757974FFC011A
:1035E000E853FF4F442311F0108212C081E0808322
:1035F0000FC02130310551F48091FF08882319F064
:103600001092510903C081E08093510920E030E01D
:10361000C901089561E081EC99E068C7CF93DF9319
:1036200000D01F92CDB7DEB7198220E42A8324E1AF
:103630002B8324E52C832091D309621708F060E0E6
:10364000FE01E60FF11D9181682F690F606881EC22
:1036500099E00F900F900F900F90DF91CF9146C798
:10366000CF93DF93EA01DADF4C815D816881798154
:1036700081EC99E0DF91CF910C94C92CE6E2F4E063
:10368000A089B18982E08C93A485B5851C92A6851A
:10369000B78580E18C93108EA489B58986E08C93E0
:1036A000A289B3898C9180618C93A289B3898C9112
:1036B00088608C93A289B3898C9180688C930288EE
:1036C000F389E02D80818F7D808308958FE598E0D8
:1036D00090931906809318068FE398E062D981E0F1
:1036E000E8DC882341F068E176E08FE398E025D8B4
:1036F000882329F006C080E0DCDC8111F4CF80E073
:10370000089590913F089077D1F32FE338E03093FC
:1037100013042093120408958F929F92BF92CF9228
:10372000DF92EF92FF920F931F93CF93DF93CDB76A
:10373000DEB7AD970FB6F894DEBF0FBECDBF1982CE
:103740001A828091D705811117C08091D4058823F2
:1037500009F499C0807621F08FE289A31AA28BC068
:1037600060E084ED95E0CFDA009709F48CC0BE01EB
:103770006F5D7F4FE8D87FC08091DC059091DD05BB
:10378000A091DE05B091DF056091DA057091DB054F
:103790009E012F5F3F4F79010097A105B10539F4D4
:1037A000C9010E949D13882309F46DC00FC020E257
:1037B000F70111922A95E9F720E1298321E02B8373
:1037C00078876F838D8F9E8FAF8FB8A3BB24B39400
:1037D00000E010E08091D7058B1508F454C0CB2C85
:1037E000D12C4091D8055091D9054C195D0960E064
:1037F00070E085E0440F551F661F771F8A95D1F74B
:10380000C7010E94FB268823F1F160E0C7010E94F6
:1038100096124C010097B9F1FC0183858F3099F520
:1038200080818F7190E0C816D90669F5D12C6D2D75
:10383000C4010E948C260097B1F08F37910510F0DB
:103840008FE390E0E0912604F09127040190F0814D
:10385000E02D682F86E294E019950F5F1F4FD394F7
:10386000FDE0DF12E4CFF401808186FD02C0B39455
:10387000B1CFC8010AC0BE016F5D7F4F86E294E000
:103880000E94772602C080E090E0AD960FB6F894D3
:10389000DEBF0FBECDBFDF91CF911F910F91FF9083
:1038A000EF90DF90CF90BF909F908F9008952091E0
:1038B000F9083091FA088091FB089091FC084BE0E0
:1038C000429FF001439FF00D1124E80FF91FEE0F06
:1038D000FF1F4091FD085091FE08E40FF51FE757C8
:1038E000F74F40814430B9F480916009882321F07A
:1038F00081508093600908951092600980915F095A
:1039000090915E09891719F08F5F80935F0920916C
:103910005F0930E024C02115310591F44091000980
:1039200041111DC04091FF088757974FFC01E85394
:10393000FF4F442311F0108212C081E080830FC03A
:103940002130310551F48091FF08882319F010923D
:10395000510903C081E08093510920E030E0C901A2
:103960000895EF92FF920F931F93CF93DF931F92CF
:10397000CDB7DEB7082F162F88E6E82E88E0F82EA0
:1039800060E0F701808949835BD385E00AD5802F09
:1039900008D5812F06D54981842F03D561E0F70131
:1039A00080890F90DF91CF911F910F91FF90EF9041
:1039B00047C3CF9360E08091780842D380EAF1D486
:1039C00080E0EFD4C82F61E08091780839D3C0FF40
:1039D00005C081E6EBDC40E061E006C0C1FF54C0F9
:1039E00081E7E4DC40E062E08CE2BBDF80916808C4
:1039F000882389F08091690890916A08A0916B08EA
:103A0000B0916C08B0688093690890936A08A0939D
:103A10006B08B0936C0880917608882389F08091B8
:103A2000690890916A08A0916B08B0916C08B06425
:103A30008093690890936A08A0936B08B0936C0810
:103A40008091690890916A08A0916B08B0916C0808
:103A500080930E0490930F04A0931004B09311046C
:103A600080916D0880930D04AEE6B8E0E5E0F4E0E7
:103A700090E09F0125503440281739071CF42D9100
:103A80002193F7CF80E001C084E0CF9108958F9219
:103A90009F92AF92BF92FF920F931F93CF93DF93AA
:103AA000182FF62E072F1092620810925F081092BE
:103AB000640885E698E090936108809360086BD273
:103AC0004B015C01C0916008D09161081A8361E0EC
:103AD000812FF4D261E08A81B3D2EED9E0916008FF
:103AE000F091610882E5808311828FE598E0D0D55E
:103AF000E0916008F091610861E08281A1D2DAE092
:103B00008FEF76D5D150E1F7E401E0916008F091B4
:103B1000610860E0828194D220E030E0A90160E099
:103B20008FE598E0CDD5813041F035D26C1B7D0B0F
:103B3000613D774088F380E251C02AEA31E040E0FD
:103B400050E068E08FE598E0BBD5853011F481E066
:103B500009C014E052D5809363081150D9F78A3A0E
:103B600059F482E08093640880916408823061F0A7
:103B7000812C912C54010DC00ED26C1B7D0B613D2C
:103B80007740D8F285E22AC0812C912CA12C80E4C8
:103B9000B82E20E030E0A90167E38FE598E090D5EA
:103BA000A501940169E28FE598E08AD5882341F068
:103BB000F2D16C1B7D0B613D774058F383E40EC05E
:103BC000809164088230D9F420E030E0A9016AE3F2
:103BD0008FE598E075D5882341F087E380935F08EF
:103BE0008FE598E011D580E014C007D5807C803C3B
:103BF00019F483E08093640800D5FFD4FED48FE5E8
:103C000098E002D5E0916008F0916108F0820183AC
:103C100081E0DF91CF911F910F91FF90BF90AF9006
:103C20009F908F900895CF93DF93BC0186E294E03C
:103C30000E94AB30EC0186E294E00E9494308C0F3D
:103C40009D1FDF91CF9108958F929F92AF92BF9267
:103C5000FF92CF93DF9300D01F92CDB7DEB7F82E3F
:103C60004A01AA24BB242C833B83882D613081F434
:103C70008C71982D937028E0829F900D112498608C
:103C80009A83A40195E0569547959A95E1F70AC065
:103C90008295880F807E8A83A40183E0569547959C
:103CA0008A95E1F7498360E080917808C9D182E084
:103CB00078D38F2D76D3898174D38A8172D38B8107
:103CC00070D38C816ED361E0809178080F900F9053
:103CD0000F900F90DF91CF91FF90BF90AF909F908A
:103CE0008F90AEC1CF93C82F482F60EE8FE039DEA2
:103CF0008FE041DB807E91E08C1301C090E0892F42
:103D0000CF9108951F93CF93DF9300D01F92CDB72B
:103D1000DEB7182F9A01AB0180E829833A834B83E1
:103D20005C83E0DF29813A814B815C81811128C06D
:103D3000123099F038F4112369F01130B9F460E0D1
:103D400084E013C0143079F058F0153079F460E055
:103D500088E10BC060E080E008C060E088E005C05A
:103D600060E080E102C060E084E16EDF809179086C
:103D70000F900F900F900F90DF91CF911F91B2CFC6
:103D80000F900F900F900F90DF91CF911F9108959A
:103D9000EF92FF920F931F93CF93DF931F92CDB7B4
:103DA000DEB7162F877028E0829FC0011124682F8C
:103DB000606481EC99E0798399D3E12E7981F72EC3
:103DC0008701085F1F4FF70161917F0181EC99E046
:103DD00037D2E016F106B9F70F90DF91CF911F911E
:103DE0000F91FF90EF9008950F931F93CF93DF9360
:103DF000082F162FC8E6D8E060E0888921D182E03C
:103E0000D0D2802FCED2812FCCD261E08889DF91B1
:103E1000CF911F910F9114C1FC01918D228D892F9B
:103E200090E0805C9F4F821B91098F7399270895C2
:103E300080E090E0892B19F08FD5811125C080E0BA
:103E400090E0892B41F080E090E0892B21F00E94E6
:103E5000000081111CC080E090E0892B41F080E0DF
:103E600090E0892B21F00E940000811113C080E0B6
:103E700090E0892BA1F080E090E0892B81F00E94F6
:103E8000000081110AC008950E940000D8CF0E944E
:103E90000000E1CF0E940000EACF0C9400000895DA
:103EA00090E0FC013197E231F10508F04EC088271F
:103EB000EC57FF4F8F4F0C94EE40809180008F772E
:103EC00003C0809180008F7D809380000895809151
:103ED0008000877FF9CF84B58F7702C084B58F7D4E
:103EE00084BD08958091B0008F7703C08091B000A9
:103EF0008F7D8093B0000895809190008F7707C0E8
:103F0000809190008F7D03C080919000877F809387
:103F1000900008958091A0008F7707C08091A00045
:103F20008F7D03C08091A000877F8093A0000895BB
:103F3000809120018F7707C0809120018F7D03C081
:103F400080912001877F8093200108953FB7F894E6
:103F500080911E0490911F04A0912004B09121042F
:103F600026B5A89B05C02F3F19F00196A11DB11DD4
:103F70003FBFBA2FA92F982F8827820F911DA11D0F
:103F8000B11DBC01CD0142E0660F771F881F991F4C
:103F90004A95D1F708952FB7F89460911A0470915B
:103FA0001B0480911C0490911D042FBF0895FC01F7
:103FB000848DDF01A80FB11DA35ABF4F2C91848DB2
:103FC00090E001968F739927848FA689B7892C93E7
:103FD000A089B1898C9180648C93938D848D981382
:103FE00006C00288F389E02D80818F7D808308954B
:103FF000CF93DF93282F30E0F901EA5AFC4F8491E8
:10400000F901E05FFC4FD491F901E653FD4FC491F3
:10401000CC2389F0811144DFEC2FF0E0EE0FFF1F7D
:10402000E055FD4FA591B491EC91ED2381E090E036
:1040300021F480E002C080E090E0DF91CF9108950C
:104040001F93CF93DF93282F30E0F901EA5AFC4FFA
:104050008491F901E05FFC4FD491F901E653FD4FE3
:10406000C491CC23C1F0162F81111ADFEC2FF0E0A0
:10407000EE0FFF1FEA56FD4FA591B4918FB7F8944C
:10408000111105C09C91ED2FE095E92302C0EC9140
:10409000ED2BEC938FBFDF91CF911F910895CF93BC
:1040A000DF93EC0161E08F81CBDF83EC90E001973F
:1040B000F1F760E08F81DF91CF91C2CFCF93DF9393
:1040C00090E0FC01E05FFC4F2491FC01E653FD4FC2
:1040D0008491882361F190E0880F991FFC01E458D6
:1040E000FD4FC591D491FC01EA56FD4FA591B491C5
:1040F000611109C09FB7F894888120958223888335
:10410000EC912E230BC0623061F49FB7F894388194
:10411000822F809583238883EC912E2B2C939FBF35
:1041200006C08FB7F894E8812E2B28838FBFDF91CC
:10413000CF910895EF92FF921F93CF93DF93EC01FD
:1041400060E08885BBDF60E08D817ADF61E08E8191
:1041500077DF83E2E82EF12C60E08F8171DF61E090
:104160008F816EDFC7010197F1F7888541DF182F36
:1041700060E08F8165DFCE0192DF1111EDCF61E04C
:1041800088859CDF60E08E81DF91CF911F91FF9049
:10419000EF9056CFAF92BF92CF92DF92EF92FF9205
:1041A0000F931F93CF93DF935C017C0189E0E80EAE
:1041B000F11CC0E0D0E0062F10E0670161E0F701DC
:1041C00081917F017BDFB8010C2E02C07595679548
:1041D0000A94E2F76170F601808132DF2196C430E3
:1041E000D10559F783EC90E00197F1F7C501DF9114
:1041F000CF911F910F91FF90EF90DF90CF90BF90E4
:10420000AF904DCF1F93CF93DF93EC01162F642F08
:104210008D8116DF61E08E8151DF60E08E8110DFDD
:10422000812F90E0BC0184E0759567958A95E1F750
:10423000CE01B0DF612FCE01DF91CF911F91AACFC8
:10424000CF93DF93EC0141E0DDDFCE0173DFDF913F
:10425000CF910895863308F0865390917B00282FE4
:104260002870977F922B90937B008770209101029A
:1042700090E4299F90011124822B80937C008091EF
:104280007A00806480937A0080917A0086FDFCCF6A
:10429000809178002091790090E0922B08958F9280
:1042A0009F92AF92BF92CF92DF92EF92FF926B01FB
:1042B0007C014CDE4B015C01C114D104E104F1042A
:1042C000E9F044DEDC01CB0188199909AA09BB0990
:1042D000883E9340A105B10578F321E0C21AD108C8
:1042E000E108F10888EE880E83E0981EA11CB11C3D
:1042F000C114D104E104F10421F7DECFFF90EF9067
:10430000DF90CF90BF90AF909F908F9008951F92B5
:104310000F920FB60F9211242F933F938F939F9379
:10432000AF93BF9380911A0490911B04A0911C0439
:10433000B0911D043091190423E0230F2D3720F490
:104340000196A11DB11D05C026E8230F0296A11DEF
:10435000B11D2093190480931A0490931B04A09319
:104360001C04B0931D0480911E0490911F04A09121
:104370002004B09121040196A11DB11D80931E045B
:1043800090931F04A0932004B0932104BF91AF9198
:104390009F918F913F912F910F900FBE0F901F9083
:1043A00018958EBD00000DB407FEFDCF8EB50895A3
:1043B0008F929F92AF92BF92CF92DF92EF92FF9235
:1043C0000F931F93CF93DF93EC01E5DD6B017C012D
:1043D0006093150470931604809317049093180447
:1043E000888106DE809314049A81992329F091E054
:1043F000811190E0909314048E859F85A889B989D6
:1044000046015701881A990AAA0ABB0A0A891B8918
:104410002C893D894E815F81688579859B814A879A
:104420005B876C877D8780169106A206B30638F4F9
:10443000CE82DF82E886F9861D82892F12C09C8396
:10444000809114048B83CE82DF82E886F9868917F7
:1044500039F0CE86DF86E88AF98A91E09D8301C033
:104460001D82DF91CF911F910F91FF90EF90DF9010
:10447000CF90BF90AF909F908F900895EF92FF9252
:104480000F931F93CF93DF93EC01862F68834983AB
:104490002A83EA8AFB8A0C8B1D8B60E00FDE898100
:1044A000882319F061E08881CBDD8881A1DD8B83D1
:1044B0009A81992321F091E0811190E09B836BDD3B
:1044C0006E837F83888799872B812C831D826A87DF
:1044D0007B878C879D876E877F87888B998BDF9101
:1044E000CF911F910F91FF90EF900895CF93DF939D
:1044F000EC0140E087DECE01DF91CF911BCECF9261
:10450000DF92EF92FF920F931F93CF93DF93EC0113
:104510004A8B198A61E08D81D1DD61E08E81CEDD2B
:1045200061E08F81CBDD60E08D818ADD60E08F818D
:1045300087DD60E08E8184DD8BE79AE10197F1F7FA
:104540008E01075F1F4F7E018DE0E80EF11C6801B0
:1045500061E0F80181918F01B1DD60E0F6018081B9
:104560006FDD0E151F0599F70BE31CE9C8010197D4
:10457000F1F768E0CE010EDEC8010197F1F762E0C5
:10458000CE0108DEC8010197F1F762E0CE0102DE3C
:10459000C8010197F1F768E0CE01FCDDC801019781
:1045A000F1F768E0CE01A2DFC8010197F1F761E001
:1045B000CE019CDFC8010197F1F766E0CE0196DFDE
:1045C000C8010197F1F762E0CE0190DFC8010197C1
:1045D000F1F76CE0CE018ADFC8010197F1F7DF91B6
:1045E000CF911F910F91FF90EF90DF90CF900895A2
:1045F0008EBD0DB407FEFDCF08958FEF8EBD0DB4B7
:1046000007FEFDCF8EB50895CF93DF93FC01238184
:10461000222351F0EC010180F281E02D61E08281E2
:104620000FDD8FEFE5DF1B82DF91CF9108950F93B0
:104630001F93CF93DF938C01862FEA01D9DF888106
:104640008EBD8981FE013296DE5F0DB407FEFDCF7F
:104650008EBDEC17FD0711F08191F7CF0DB407FE69
:10466000FDCF8FEFC5DF8FEFC3DFC7DFF801848396
:10467000982F9F71953031F087E58083C801C4DFA2
:1046800080E001C081E0DF91CF911F910F910895EB
:10469000CF93DF93FC01238121110FC0EC01018036
:1046A000F281E02D908181819CBD8DBDE981FA81EF
:1046B00060E08281C5DC81E08B83DF91CF9108953A
:1046C000EF92FF921F93CF93DF9300D01F92CDB74D
:1046D000DEB77C01162F29833A834B835C83FC0170
:1046E0008381811102C0C701D3DF0E941331812F62
:1046F00080647EDF8C817CDF8B817ADF8A8178DF4A
:10470000898176DF112311F087E801C085E970DF28
:104710001C3009F472DF10E070DFF701848387FF3B
:1047200004C01F3F11F01F5FF7CF0F900F900F9045
:104730000F90DF91CF911F91FF90EF9008950F930D
:104740001F93CF93DF93EC0189018D81833039F082
:1047500089E0440F551F661F771F8A95D1F79A018C
:10476000AB0168E1CE01ACDF882311F082E31CC00D
:10477000A8016EEFCE015BDF8823B9F00E941331F0
:10478000182F811102C08AE50FC020E030E0A90196
:104790006DE0CE0195DF811106C02FDF811103C0CE
:1047A000CE0132DF05C089E28883CE012DDF10E023
:1047B000812FDF91CF911F910F9108950F931F9338
:1047C000CF93DF93EC0189018D81833039F089E04B
:1047D000440F551F661F771F8A95D1F79A01AB01C9
:1047E00061E1CE016DDF882319F080E388830AC080
:1047F000B801CE010E94CF30182F882319F0CE01C6
:1048000003DF03C0CE0100DF10E0812FDF91CF91E5
:104810001F910F9108958F929F92AF92BF92CF9266
:10482000DF92EF92FF920F931F936A017B01480181
:104830005901423051056105710510F480E050C006
:10484000FC01408D518D628D738D4C155D056E059B
:104850007F05A0F32581203239F544895589668981
:10486000778997018601E7E0369527951795079593
:10487000EA95D1F7400F511F621F731F23E0809606
:104880007BD10097D9F2E894C7F8DD24EE24FF2409
:10489000CC0CDD1CCC0CDD1CFC01EC0DFD1D808264
:1048A0009182A282B3821BC0203141F6FC0144896F
:1048B0005589668977894D0D511D611D711D23E054
:1048C00080965AD1009709F4B9CFDD24EE24FF2455
:1048D000CC0CDD1CFC01EC0DFD1D9182808281E081
:1048E0001F910F91FF90EF90DF90CF90BF90AF900E
:1048F0009F908F900895FC01538D448D252F30E0BB
:10490000842F90E0821B930B541710F0CF960895DC
:1049100001970895FC01918D828D981761F0828D29
:10492000DF01A80FB11D5D968C91928D9F5F9F73E3
:10493000928F90E008958FEF9FEF0895FC01918D85
:10494000828D981731F0828DE80FF11D858D90E0F2
:1049500008958FEF9FEF089586E294E05DDA21E0FD
:10496000892B09F420E0822F0895EF92FF920F9394
:104970001F93CF93DF93EC0181E0888F9B8D8C8D0B
:10498000981305C0E889F989808185FD23C0F62E3A
:104990000B8D10E00F5F1F4F0F731127E02E8C8DD2
:1049A000E8120BC00FB607FCFACFE889F9898081BD
:1049B00085FFF5CFCE01FBDAF2CF8B8DFE01E80F3C
:1049C000F11DE35AFF4FF0820B8FEA89FB8980814A
:1049D000806207C0EE89FF896083E889F989808158
:1049E0008064808381E090E0DF91CF911F910F91EF
:1049F000FF90EF900895CF93DF93EC01888D88238B
:104A0000C1F0EA89FB89808185FD05C0A889B98943
:104A10008C9186FD0EC00FB607FCF5CF808185FF17
:104A2000F2CFA889B9898C9185FFEDCFCE01BFDA8D
:104A3000E8CFDF91CF9108951F920F920FB60F929A
:104A400011240BB60F922F933F934F935F936F9365
:104A50007F938F939F93AF93BF93EF93FF9386E2E0
:104A600094E0A5DAFF91EF91BF91AF919F918F9163
:104A70007F916F915F914F913F912F910F900BBE5E
:104A80000F900FBE0F901F9018951F920F920FB6A8
:104A90000F9211240BB60F922F938F939F93EF9346
:104AA000FF93E0913604F09137048081E0913C045B
:104AB000F0913D0482FD12C0908180913F048F5F90
:104AC0008F7320914004821751F0E0913F04F0E091
:104AD000EA5DFB4F958F80933F0401C08081FF9179
:104AE000EF919F918F912F910F900BBE0F900FBE62
:104AF0000F901F901895EF92FF921F93CF93DF9323
:104B0000FC01208120FF30C0EC017C01F7E0EF0EBA
:104B1000F11C4B815C816D817E81E981FA81970175
:104B2000808191810CDE182F811102C010E01DC020
:104B3000888181FD04C088818E7F888316C0E981C9
:104B4000FA8144855585668577858B819C81AD8109
:104B5000BE81480F591F6A1F7B1F97018081918179
:104B6000EEDD8111E8CFE2CF11E0812FDF91CF910F
:104B70001F91FF90EF900895CF92DF92EF92FF92F6
:104B80001F93CF93DF93EC016A017B01122F8B817E
:104B90009C81AD81BE8184179507A607B707E1F018
:104BA000CE01A9DF811103C080E090E01BC012FF9D
:104BB00006C01882CB82DC82ED82FE820DC0E981C4
:104BC000FA819E01295F3F4FB701A6018081918143
:104BD000F5DD8111EECFE8CF13708881182B188393
:104BE000CE010796DF91CF911F91FF90EF90DF905C
:104BF000CF900895CF92DF92EF92FF920F931F9381
:104C0000CF93DF93EC016A017B01890142305105AA
:104C10006105710510F48FEF61C0888D998DAA8DA3
:104C2000BB8D84179507A607B707A8F38D8180323F
:104C300039F58C899D89AE89BF89E7E076956795BE
:104C400057954795EA95D1F7480F591F6A1F7B1F63
:104C500022E0CE01809690DF0097E9F2E894C7F851
:104C6000DD24EE24FF24CC0CDD1CCC0CDD1CFC016F
:104C7000EC0DFD1D80819181A281B381BF701DC0AB
:104C8000803149F64C895D896E897F894D0D511DB2
:104C9000611D711D22E0CE0180966EDF009709F440
:104CA000BACFDD24EE24FF24CC0CDD1CFC01EC0D7E
:104CB000FD1D80819181A0E0B0E0488D598D6A8D05
:104CC0007B8D481759076A077B0738F0F801808306
:104CD0009183A283B38381E001C080E0DF91CF9113
:104CE0001F910F91FF90EF90DF90CF900895611585
:104CF000710579F0FB0101900020E9F73197AF01D0
:104D0000461B570BDC01ED91FC910280F381E02DF5
:104D1000199480E090E00895653040F4FC01E60FBE
:104D2000F11DE60FF11D8181928108956B3040F4F1
:104D3000FC01E60FF11DE60FF11D848195810895B8
:104D4000613140F4FC01E60FF11DE60FF11D868193
:104D50009781089580E090E00895FC01AC01455FE3
:104D60005F4F80E090E8899F90011124982F9695DD
:104D7000922B2191892F820FE417F50799F7089557
:104D8000CF93DF93FC012081211102C081E030C06C
:104D9000EC01828187FF25C061E0CF010E9483166C
:104DA000FC01892B29F489818160898380E020C0FE
:104DB0008081853EC1F3888183FF08C0888D998DED
:104DC000AA8DBB8D848F958FA68FB78F8C8D9D8D6F
:104DD000AE8DBF8D938F828FB58BA48B8A818F7799
:104DE0008A838E819F81809686DE8823E1F2CECFF2
:104DF000DF91CF9108954F925F926F927F928F9241
:104E00009F92AF92BF92CF92DF92EF92FF920F9359
:104E10001F93CF93DF93EC014A015B014C845D84C7
:104E20006E847F84A881AA2309F490C04889598997
:104E30006A897B8984169506A606B70609F48CC094
:104E400081149104A104B10429F41C861D861E86D8
:104E50001F8677C0A3FF0BC0088D198D2A8D3B8D4F
:104E6000081519052A053B0508F470C014C0A5FFF4
:104E700012C0EE81FF818681978125E0880F991FFE
:104E80002A95E1F7A0E0B0E088159905AA05BB05D1
:104E900008F45CC056C0EE81FF81848190E00996E1
:104EA0008A019B010150110921093109082E04C012
:104EB00036952795179507950A94D2F775016401E1
:104EC000B1E0CB1AD108E108F10804C0F694E794E8
:104ED000D794C7948A95D2F7C016D106E206F30696
:104EE00020F0452B462B472B81F4A6FF05C0848D6F
:104EF000958DA68DB78D04C08C8D9D8DAE8DBF8D8B
:104F00008C879D87AE87BF8704C0C01AD10AE20A8A
:104F1000F30A8E01045F1F4FC114D104E104F104B0
:104F200081F04C855D856E857F8598018E819F819E
:104F300061DE91E0C91AD108E108F108181664F39E
:104F400005C0888A998AAA8ABB8A06C04C865D8673
:104F50006E867F8680E001C081E0DF91CF911F9156
:104F60000F91FF90EF90DF90CF90BF90AF909F9008
:104F70008F907F906F905F904F9008952F923F9207
:104F80004F925F926F927F928F929F92AF92BF9259
:104F9000CF92DF92EF92FF920F931F93CF93DF9305
:104FA000CDB7DEB72E970FB6F894DEBF0FBECDBFDC
:104FB0008C017B01FA0181809280DB018C918077EA
:104FC00009F4BCC2D8018C918111B8C29081937050
:104FD00009F4A8C2C4010C966DE070E00E94C740BD
:104FE00044244394460E2D831F01FE86ED861B87C5
:104FF0000A8740E050E0BA01C701FDDEA12C1F8204
:10500000B12C512C10E000E01E8291012A5F3F4F2D
:1050100039872887ED85FE8580899189A289B389A2
:105020009C01AD01A5E05695479537952795AA9522
:10503000D1F729833A834B835C8369807A8061E06E
:10504000CF010E9496127C01009741F4AD85BE8588
:1050500011968C91882309F488C070C2FC0180816C
:10506000853E11F081110BC0111103C0A9802A8166
:105070002F83141508F41F5F811105C076C0141525
:1050800008F453C202C0853E81F18E3271F1D7011E
:105090001B969C911B979F3009F046C0011108C0D8
:1050A00086FFB8CF082F0F711D96BC90502E07C0F9
:1050B0005A9485111AC0F7018585B81216C0852D3E
:1050C00090E00197FDE0F89F6001F99FD00C11245A
:1050D000C814D90450F4712C672DC7011DDEC81403
:1050E000D90429F4892B09F495CF00E093CF8F3FA1
:1050F000910509F0D0F72FEB280F2A3108F4805ED4
:1051000096012F5F3F4FD10113964D915C911497FB
:10511000FA01EC0DFD1D90814FEB490F4A3108F467
:10512000905E8913E2CF03C293FDDFCF002341F0ED
:10513000B1E05B1203C2C70110DE8B11FFC111C0C9
:105140004BE050E068857985C7010E94DE41892BDC
:1051500009F060CFF101808180FF03C031E03E8320
:1051600059CFFD81F7FFD5C1E9C18D8182748234A9
:1051700009F0E4C1112359F06A2C7F8008C060E077
:105180008D859E850E949612892B21F01F5F141534
:10519000B0F37AC0AD85BE8511968C91882309F451
:1051A00073C0CCC1ED85FE85808185FDC7C1808936
:1051B0009189A289B38981159E4FAF41B10508F04D
:1051C000BDC18D859E850E94A316882309F4B6C1B2
:1051D000AD85BE851696ED91FC9117971C96CD90E6
:1051E000DD90ED90FC901F97B2E0CB1AD108E1085A
:1051F000F108048004C0CC0CDD1CEE1CFF1C0A94DA
:10520000D2F780899189A289B389C80ED91EEA1E76
:10521000FB1E25E0B701A601CF018096ADDC5C0145
:10522000009709F48BC1FC0120E032E0119221507B
:105230003040E1F701E0ED85FE850680F781E02D45
:10524000FA83E9838281081718F190E0A0E0B0E0CA
:10525000E9E0880F991FAA1FBB1FEA95D1F7ED85DA
:10526000FE854089518962897389840F951FA61F25
:10527000B71F808B918BA28BB38BA981BA811296B9
:105280008C918230B0F4105F141508F48BCF11C0EC
:105290009501B701A601400F511D611D711DA98126
:1052A000BA818D919C914BDA882309F447C10F5F35
:1052B000C2CFBE81BB2309F474C0F101D58002E0E6
:1052C00010E07EE7C72E7101F6E0EF0EF11C41C041
:1052D000B3E0BD1510F453E0D52E94E09D0D822F60
:1052E0008F70E92FF0E08A3008F054C0805DE20D45
:1052F000F31D868344E0369527954A95E1F7915052
:10530000D91668F3F101ED0DF11DC68240E050E0C1
:10531000BA018D859E856FDD61E08D859E850E9439
:1053200096120097C9F1DC012C912223D1F11B9632
:105330002C9123FDF1CF4BE050E0BC01C7010E944E
:10534000DE41892B49F70F5F1F4F0436110509F421
:10535000F5C0D10111964D915C9112979801240FDF
:10536000351F1396ED91FC9114974E0F5F1FE417B4
:10537000F50709F4ADCFC90165E0880F991F6A955B
:10538000E1F7280F391F8191082E000C990B28276F
:105390003927EDCF895CABCFED85FE858181811109
:1053A000CDC0A30160E070E025E0440F551F661FEB
:1053B000771F2A95D1F78D859E851DDD882309F4F9
:1053C000BDC00FEF040DA02E1FE06101B6E0CB0EB3
:1053D000D11C9DE0B92EAA2009F45CC060E08D8547
:1053E0009E850E9496127C01892B09F4A7C0AD8589
:1053F000BE851696ED91FC91179780A1816080A3E0
:105400002A2DA01201C02064F7012083138714867F
:10541000C6012C87A2DCD7011D968C931D975B9645
:105420001C921E925A97F101438154812C852F7151
:1054300030E021503109B29EC001B39E900D11247D
:10544000F70160E08815990540F4DA01A80FB91F4B
:105450002C91022E000C330B0AC021E030E088159D
:10546000990511F420E030E031952195310965303E
:1054700018F43283218307C06B3018F435832483FA
:1054800002C0378326836F5F019632966D30D1F666
:10549000AA94A1CFAD85BE8550964D915D916D9139
:1054A0007C91539785E076956795579547958A95B2
:1054B000D1F73A0160E0CD010E9496120097F1F118
:1054C00020E2FC0111922A95E9F7F10136962BE0D2
:1054D000DC0101900D922A95E1F7D1012C91287100
:1054E000FC01248721E238E2318B208B40E058E038
:1054F00057874687338B228B318F208F578B468B74
:10550000AD85BE851696ED91FC91179780A18160BF
:1055100080A32D81A3016D857E858A859B850E9450
:10552000B7130DC0442443945ECD10E0AECD739408
:10553000BDE07B1609F46ECD6901CECD80E02E96DC
:105540000FB6F894DEBF0FBECDBFDF91CF911F9194
:105550000F91FF90EF90DF90CF90BF90AF909F9012
:105560008F907F906F905F904F903F902F90089515
:105570002F923F924F925F926F927F928F929F9263
:10558000AF92BF92CF92DF92EF92FF920F931F9351
:10559000CF93DF93CDB7DEB72A970FB6F894DEBF6F
:1055A0000FBECDBF9E838D833B015A834983DC01AF
:1055B0008C9183FF10C012968C9181FF0CC082FFEA
:1055C00012C0ED81FE81408D518D628D738DCF01B2
:1055D00012DC811108C0ED81FE81818181608183AF
:1055E0008FEF9FEFB2C189819A81AC0160E070E0DA
:1055F000ED81FE8180899189A289B38980959095FA
:10560000A095B09584179507A607B70720F3C98022
:10561000DA803C96FC83EB8322242A94322C2101ED
:10562000AD81BE8150964D915D916D917C91539766
:10563000C114D10409F460C1AD81BE8116968D916B
:105640009C9117978A019B0169E0369527951795DC
:1056500007956A95D1F7DC011396EC91BE2EB02226
:105660007A01B1E0FB22B1103DC0E114F104D1F5A3
:10567000ED81FE8144855585668577854115510507
:105680006105710571F02B813C81B4DA87FDA3CFF0
:10569000811128C08D819E810E94A316811122C094
:1056A0009ACFED81FE81848D958DA68DB78D009763
:1056B000A105B10589F4CF010E94A316882309F43E
:1056C0008ACFED81FE8184859585A685B785848FF7
:1056D000958FA68FB78F06C0ED81FE818487958751
:1056E000A687B787AD81BE811696ED91FC9117977D
:1056F0001C964D915D916D917C911F97425051097F
:1057000061097109048004C0440F551F661F771F8B
:105710000A94D2F780899189A289B389480F591FC9
:105720006A1F7B1F4B0D511D611D711DE114F1049A
:1057300029F4C114B2E0DB0608F03EC080E092E03C
:105740008E199F0986018C159D0508F48C01E114C2
:10575000F104A9F4AD81BE8150968D909D90AD90DD
:10576000BC90539758968D919D910D90BC91A02D12
:1057700088169906AA06BB0610F025E001C021E0B4
:10578000CF018096F9D9009709F425CFA801B3017C
:105790008E0D9F1D0E94EB41E00EF11EE114B2E060
:1057A000FB0609F096C0ED81FE8186819781809687
:1057B000A2D981118EC00FCF03A114A125A136A1BA
:1057C000C11484E0D80608F46AC082818B1990E085
:1057D000AD2CA694B12C8A159B0508F45C01041726
:1057E00015072607370760F0D901C8018A0D9B1DF0
:1057F000A11DB11D481759076A077B0708F49FC010
:10580000AD81BE811696ED91FC911797E080F180F5
:10581000F7018581833039F099E0440F551F661FE9
:10582000771F9A95D1F79A01AB0169E1C7010E94F0
:105830006023811104C0430100E010E00FC083E346
:10584000D7018C9314C0A4016CEFC7010E941723E9
:10585000882369F00F5F1F4FFEEF9F1A0A151B0583
:1058600051F0E1D48111EFCF8AE5F7018083C701C0
:105870000E94042310C0D7D4882351F0102F002792
:10588000110F8DEF0E94F822C7010E94042321C04E
:1058900086E5D7018C93C7010E9404239CCE041790
:1058A00015072607370729F410A223A234A245A220
:1058B00056A2AD81BE811696ED91FC91179793018A
:1058C000808191810E949F23882309F484CE00E087
:1058D00012E0ED81FE8180899189A289B389800FD0
:1058E000911FA11DB11D808B918BA28BB38B600E7C
:1058F000711EC01AD10A94CE58968D919D910D902B
:10590000BC91A02D84179507A607B70748F4ED8131
:10591000FE81408F518F628F738F82818068828376
:10592000AD81BE8112968C9183FD03C089819A81DD
:105930000CC08D819E8124DA8111F8CF4CCE10A24B
:1059400023A234A245A256A25BCF2A960FB6F894A2
:10595000DEBF0FBECDBFDF91CF911F910F91FF90A2
:10596000EF90DF90CF90BF90AF909F908F907F90FF
:105970006F905F904F903F902F900895E091F405C5
:10598000F091F5050190F081E02D682F84EF95E00E
:105990001994CF92DF92EF92FF920F931F93CF93C0
:1059A000DF936C017A018B01C0E0D0E0CE15DF05FA
:1059B00089F0D8016D918D01D601ED91FC91019096
:1059C000F081E02DC6011995892B11F47E0102C0EA
:1059D0002196ECCFC701DF91CF911F910F91FF90DE
:1059E000EF90DF90CF9008950E94DA410F931F93BC
:1059F000CF93DF93EC0188819981009729F02A8168
:105A00003B812617370788F48B016F5F7F4F0E9419
:105A1000F640009761F0998388831B830A832C8169
:105A20003D81232B11F4FC01108281E001C080E054
:105A3000DF91CF911F910F910895EF92FF920F93F5
:105A40001F93CF93DF93FC0124813581611571058C
:105A500011F480E018C041155105A1F07B01EC0163
:105A60008A01020F131FB801C1DF882391F3288137
:105A700039818C819D81B701820F931F0E94F4416F
:105A80001D830C8381E0DF91CF911F910F91FF90D7
:105A9000EF900895CF93DF93EC018881998100976F
:105AA00011F00E94303B198218821D821C821B82D9
:105AB0001A82DF91CF910895EF92FF920F931F9377
:105AC000CF93DF93EC017B0161157105D9F0CB0118
:105AD0000E94CF3B0097C1F02C813D818C01020FC9
