:10000000B0C20000DFC20000DDC20000DBC20000A1
:10001000D9C20000D7C20000D5C20000D3C2000080
:10002000D1C20000CFC20000CDC20000CBC2000090
:10003000C9C20000C7C20000C5C20000C3C20000A0
:10004000C1C20000BFC20000BDC20000BBC20000B0
:10005000B9C20000B7C20000B5C200000C94F8217C
:10006000B1C200000C94B6250C948D25ABC20000E3
:10007000A9C20000A7C20000A5C20000A3C20000E0
:10008000A1C200009FC200009DC200009BC20000F0
:1000900099C2000097C2000095C2000093C2000000
:1000A00091C200008FC200008DC200008BC2000010
:1000B00089C2000087C2000085C2000083C2000020
:1000C00081C200007FC200007DC200007BC2000030
:1000D00079C2000077C2000075C2000073C2000040
:1000E00071C20000FA0C380D5D0D820DA70DCC0D0C
:1000F000F10D050E3D0EDE0E1D0F5C0F9B0FDA0F8E
:10010000191058108610DC10DC1FDF1FCE1FD21F05
:10011000D81F1620E31FE71FED1FF11FF51FFB1F60
:10012000FF1F0320162009200D20112000407A1007
:10013000F35A00A0724E18090010A5D4E80000E898
:100140007648170000E40B54020000CA9A3B0000F6
:1001500000E1F505000080969800000040420F0085
:100160000000A08601000000102700000000E80346
:10017000000000006400000000000A000000000011
:100180000100000000002C76D888DC674F0823DFD0
:10019000C1DFAE59E1B1B796E5E3E453C63AE651A3
:1001A000997696E8E6C28426EB898C9B62ED407CCA
:1001B0006FFCEFBC9C9F40F2BAA56FA5F490055A66
:1001C0002AF75C936B6CF9676DC11BFCE0E40D478B
:1001D000FEF520E6B500D0ED902E030094357705AE
:1001E0000080841E080000204E0A000000C80C3366
:1001F0003333330F986E12831141EF8D2114893BF5
:10020000E65516CFFEE6DB18D1844B381BF77C1D74
:10021000901DA4BBE424203284725E228100C9F1C7
:1002200024ECA1E53D276368646972206661696C0E
:10023000656420666F7220747261636B20747261F2
:10024000707320666F6C6465722E00202020202061
:1002500020202020202020202020202020200020BE
:10026000005344434C4F534544005468656E20533B
:100270006F667420526573657400436865636B2014
:1002800043617264005344204E6F74205265616470
:1002900079002C0054696D652C0053444F50454E35
:1002A0000000002100240027002A002D0030003328
:1002B0000001010000040107010A010000220025DD
:1002C0000028002B002E0031003400020100000540
:1002D0000108010B01000020002300260029002C4A
:1002E000002F003200000100000301060109010592
:1002F000050505070508080808020202020A0A089F
:1003000008040404040101010101010101030303C4
:100310000303030303040707070C0C0C0C0C0C0C61
:100320000C0202020206060606060606060B0B0B68
:100330000B0B0B0B0B0102102020080810204010A3
:100340002040800201020108040201010204081099
:1003500020408080402010080402018004020180B7
:1003600040201008040201080402010102040810E0
:10037000204080010204081020408000000A0B0287
:10038000090C0D0E08070304010000000000000026
:10039000000000000000000000000000000000005D
:1003A000000000000000001211100000000000001A
:1003B000000000000000000000000000000000003D
:1003C0000043617264205265616479004361726424
:1003D000204661696C7572650043617264205265E4
:1003E00061647900536F66742052657365740054BC
:1003F0007261636B2053656C656374005374617242
:10040000742F53746F700044617461204C6F676780
:10041000657200472D466F726365204C6F6E6700F2
:10042000472D466F726365204C617400456D707492
:100430007900556E6B6E6F776E204D6F6E69746FBD
:1004400072005374656572696E6720416E676C65F2
:100450000052504D005370656564004272616B65D7
:10046000205072657373757265004272616B65002E
:10047000416363656C20506F736974696F6E0054DB
:10048000505300506172616D65746572730083042E
:100490005D037F047F04700470046A045B045504E8
:1004A00055045104510442044204320432042C0421
:1004B0002C04200420041304130407045D03FC032C
:1004C00007045D035D035D035D035D035D035D0381
:1004D0005D035D035D035D035D035D035D035D031C
:1004E0005D035D035D03EF035D035D035D035D037A
:1004F0005D035D035D035D035D035D035D035D03FC
:100500005D035D035D035D035D035D035D035D03EB
:100510005D03E4035D035D035D035D035D035D0354
:100520005D035D035D035D035D035D035D035D03CB
:100530005D035D035D035D035D035D035D032020DB
:10054000002000002020002000202000202020206B
:100550002000202020200020202000200000303912
:10056000893611241FBECFEFD1E2DEBFCDBF00E040
:100570000CBF13E0A0E0B2E0E0E1FAE800E00BBF5E
:1005800002C007900D92A03DB107D9F729E0A0ED78
:10059000B3E001C01D92AC3BB207E1F712E0C0EB43
:1005A000D2E000E006C021970109802FFE010E94E1
:1005B0002141CF3AD10780E00807A9F70E94AA3667
:1005C0000C94F7441DCD8F929F92AF92BF92CF9221
:1005D000DF92EF92FF920F931F93CF93DF93CDB7EC
:1005E000DEB7E0970FB6F894DEBF0FBECDBF0E9416
:1005F0003C20672B682B692B41F40E943C20623021
:1006000071058105910508F4F8C00E943C206093B3
:100610000E0470930F0480931004909311040091C2
:100620000A0410910B0420910C0430910D04601702
:1006300071078207930740F460930A0470930B04D8
:1006400080930C0490930D0400910A0410910B0404
:1006500020910C0430910D044B015C01801A910A29
:10066000A20AB30A950184010A3F1105210531054B
:1006700008F4C3C060930A0470930B0480930C04C5
:1006800090930D0484EF91E0A0E0B0E08093DF044C
:100690009093E004A093E104B093E2041092E30489
:1006A0001092E4041092E5041092E6048091D704BD
:1006B0009091D804A091D904B091DA048093DB041E
:1006C0009093DC04A093DD04B093DE040E943C20F0
:1006D0006093D7047093D8048093D9049093DA047C
:1006E0000E943C206B017C016AE872E08091130556
:1006F000909114050E9479312AE041E050E060E0D9
:1007000070E080911305909114050E94173061E903
:1007100072E080911305909114050E9479312AE0CE
:10072000B701A60180911305909114050E9417301E
:1007300063E972E080911305909114050E9479316C
:100740008091D7049091D804A091D904B091DA0493
:10075000B701A601481B590B6A0B7B0B2AE080915D
:100760001305909114050E94173063E972E080919F
:100770001305909114050E9479314091D70450914E
:10078000D8046091D9047091DA048091DB049091CF
:10079000DC04A091DD04B091DE04481B590B6A0B08
:1007A0007B0B2AE080911305909114050E9417306D
:1007B00065E972E080911305909114050E947931EA
:1007C0000E943C20AB01BC012AE08091130590916E
:1007D00014050E94173067E972E08091130590912B
:1007E00014050E9464300E943C206093D7047093EB
:1007F000D8048093D9049093DA041092D80310920D
:10080000D7031092D6031092D503DD24D3941AE0B7
:10081000E12EF12C0FEF10E082E00E946920892B7D
:1008200009F0F2C08091000281110DC06091B309FE
:10083000862F84608093B3096C6085EA99E00E94FA
:10084000E722D09200020E945B1D80911C049091CF
:100850001D04A0911E04B0911F04823927E0920765
:10086000A105B105A1F48091D8038111CDC080917B
:10087000150444E6849FC0011124B8010E940E4172
:100880007093F5036093F403D092D803BDC0813D0B
:1008900052E09507A105B10551F58091D70381116B
:1008A000B3C08091150490E0382F22273093D403F1
:1008B0002093D30390911404892F90E09093D20356
:1008C0008093D103820F931FB4E095958795BA95D5
:1008D000E1F79093F3038093F2038091180490E082
:1008E0009093ED038093EC03D092D7038DC08D33AA
:1008F00062E09607A105B10509F046C08091D603D4
:10090000811182C06091170470E0762F6627709382
:10091000D4036093D30390911604892F90E09093B1
:10092000D2038093D103680F791F072E000C880B28
:10093000990B0E94A93E2AE939E949E450E40E9452
:10094000083F0E94C1407093F1036093F0038091CF
:10095000150474E6879FC0011124B8010E940E415E
:100960007093F9036093F80380911404A4E68A9FBE
:10097000C0011124B8010E940E417093F7036093E7
:10098000F603D092D60340C082309105A105B1058F
:10099000F9F48091D503811137C08091140490E05F
:1009A000982F88279093D2038093D103209113042A
:1009B000820F911D9093D4038093D303B7010E94BB
:1009C0000E417093EF036093EE03D092D5031CC0E9
:1009D00085329640A105B105B9F4809116048F7750
:1009E000803111F0D09209048091140480779091A5
:1009F000D003811183C5992339F067E185EA99E035
:100A00000E94E7221092D0038091D803811123C065
:100A10008091D70381111FC08091D60381111BC023
:100A20008091D503882309F4F7CE15C08091000288
:100A3000882361F06091B3096B7F6093B3096860AC
:100A400085EA99E00E94E7221092000282E00E946B
:100A50006920892B29F0809109048111E7CF17C003
:100A60000E945B1D80911C0490911D04A0911E04A6
:100A7000B0911F0485329640A105B10561F78091C0
:100A800016048F77803139F710920904E4CF8FE88C
:100A900099E00E94492289E799E00E94492283E671
:100AA00099E00E9449228DE499E00E9449228091B8
:100AB0009209811111C080919409882369F0809175
:100AC000D903811109C00E947F1B809140098823AE
:100AD00009F41EC50E94DD1C1092D9038091920971
:100AE000813031F58091950990919609A0919709EF
:100AF000B091980940919D0950919E0960919F097C
:100B00007091A009841B950BA60BB70B883E9340F0
:100B1000A105B10568F00E941C35E6E3F9E081E02B
:100B2000819399E0E034F907D9F781E08093D90304
:100B300080917C0981110DC080917E09882349F044
:100B40000E947F1B80914009882309F48CC50E9474
:100B5000211B80916609811118C080916809882342
:100B6000A1F00E947F1B209140098091450990913E
:100B700046092111D3C58130910509F4DDC58230C4
:100B8000910509F4DEC597FFE0C5809150098111F8
:100B900018C0809152098823A1F00E947F1B809188
:100BA0004009E0914509F0914609882309F4D3C52D
:100BB00010924C0910924B093197F0934609E0933B
:100BC00045098091450990914609019609F073C045
:100BD0008091DD03082E000C990B049620913004BF
:100BE0003091310462E08217930794F483E10E940C
:100BF000831B62E085EA99E00E94912163E083E132
:100C00000E94831B61E085EA99E00E94912113C054
:100C100083E10E94831B6DE173E085EA99E00E9405
:100C2000793163E083E10E94831B6DE173E085EA23
:100C300099E00E947931809130049091310460E014
:100C40000597E4F08091DD031816C4F483E10E9457
:100C5000831B80910804882311F063E001C060E0E9
:100C600085EA99E00E94912161E083E10E94831B63
:100C700062E085EA99E00E9491211DC083E10E9413
:100C8000831B80910804882331F063E085EA99E0B2
:100C90000E94912106C06DE173E085EA99E00E940F
:100CA000793161E083E10E94831B6DE173E085EAA5
:100CB00099E00E94793180913509882309F466C151
:100CC00080913204882309F409C1809108048111BC
:100CD000D2C0809107048F93809106048F9387EC94
:100CE00092E09F938F938AEF93E09F938F930E945C
:100CF0002E420F900F900F900F900F900F9077EC67
:100D0000E72E72E0F72E0AEF13E08091060490912F
:100D10000704019690930704809306049F938F9392
:100D2000FF92EF921F930F930E942E4219821A8214
:100D300021E04AEF53E063E278E0CE0101960E94A1
:100D400048150F900F900F900F900F900F908111FA
:100D5000DCCF609120047091210423E64AEF53E038
:100D60008CED95E00E9448158AE992E00E94CC1C27
:100D700064E972E088ED95E00E947B3100E010E0CC
:100D800080916008909161080817190724F5E2E046
:100D9000F2E080E090E02191022E000C330B20174E
:100DA000310791F4880F991FFC01EE5CFD4F6081C3
:100DB000718188ED95E00E94793162E972E088EDF9
:100DC00095E00E947B3104C001968A30910519F7A5
:100DD0000F5F1F4FD5CF88ED95E00E94603060E037
:100DE00083E10E94831B63E085EA99E00E949121E0
:100DF00081E08093E408809308048091A605909197
:100E0000A7058D7F892BB9F581E090E09093A70528
:100E10008093A605E091B205F091B3051995C090B5
:100E2000AA05D090AB05E090AC05F090AD0500911F
:100E3000AE051091AF052091B0053091B105460186
:100E40005701801A910AA20AB30A95018401060F7C
:100E5000171F281F391F0093AA051093AB05209375
:100E6000AC053093AD056093AE057093AF058093EC
:100E7000B0059093B1058091A6059091A7050197C3
:100E800069F4E091B205F091B30519956093AE0550
:100E90007093AF058093B0059093B1054091AE0576
:100EA0005091AF056091B0057091B1058091AA0590
:100EB0009091AB05A091AC05B091AD05481B590BC5
:100EC0006A0B7B0B2AE088ED95E00E94173060EDFD
:100ED00072E088ED95E00E94793197C00E947F1BF7
:100EE0001A8219821C821B821E821D8265E872E0B2
:100EF000CE0101960E94092EAE014F5F5F4F60E068
:100F000070E080E090E00E94A51BCE0101960E9457
:100F1000782E1A8219821C821B821E821D826AE729
:100F200072E0CE0101960E94092EAE014F5F5F4F25
:100F300061E070E080E090E00E94A51BCE01019688
:100F40000E94782E1A8219821C821B821E821D82A8
:100F50006AE672E0CE0101960E94092EAE014F5F53
:100F60005F4F63E070E080E090E00E94A51BCE013F
:100F700001960E94782E109235096CEA7DE080E09F
:100F800090E00E94C0210E947F1B3FC08091080416
:100F90008823D9F18CED95E00E943F1581E692E01F
:100FA0000E94CC1C1092E4088091A6059091A705A0
:100FB000019759F482E090E09093A7058093A605ED
:100FC000E091B205F091B30519951092A705109222
:100FD000A6051092AE051092AF051092B0051092C2
:100FE000B1051092AA051092AB051092AC051092B3
:100FF000AD051092080460E083E10E94831B6FE559
:1010000072E085EA99E00E947B3142E3A42E42E03F
:10101000B42E52E0E52E52E0F52EC12CD12C9924AD
:101020009A94F601EA5CF64F8081882399F1D70102
:101030008C9187FF22C0F50160817181CE010196FC
:101040000E94AA2EBE016F5F7F4F8EE598E00E943E
:10105000E335CE0101960E94782E80916008815080
:10106000D7018C9380913004909131040196909334
:101070003104809330040E94BA338091350986018F
:1010800001501109882309F48CC48091DC05811179
:101090002CC687C4F701408147FD29C0042E000CEF
:1010A000550B6EE578E0CE0101960E945635CE01D3
:1010B00001960E94782EE2E0F2E0B2E0EC30FB070D
:1010C00049F08081D7019C91981714F48150808356
:1010D0003196F3CF80913004909131040197909331
:1010E000310480933004F70190820E94BA33FFEFFD
:1010F000CF1ADF0A2FEFE21AF20A42E0A40EB11C67
:101100005AE0C516D10409F08CCF60916008709147
:1011100061088091E2039091E3036817790789F0F1
:1011200080E00E94831B6BE472E085EA99E00E94F4
:101130007B3180916008909161089093E3038093E4
:10114000E2038091DC039091DB038917B1F0809377
:10115000DB032091600830916108482F50E0B9010D
:10116000635071094617570714F40C943211245038
:101170002093DC0381E08093DA0380914B09909106
:101180004C09E0914909F0914A09209147093091B1
:10119000480940914509509146095093DC08409315
:1011A000DB083093DE082093DD08F093E008E0933D
:1011B000DF089093E2088093E1084F3F5F4F09F406
:1011C00012C11BE0129FA001139F500D1124E40FC8
:1011D000F51FEE0FFF1F8E0F9F1FFC01E359F74F06
:1011E0008081843009F0D6C0CE0101960E946B2F19
:1011F000AE014F5F5F4F60E070E080E090E00E94E2
:10120000A51BCE0101960E94782ECE0101960E9468
:10121000BE2EAE014F5F5F4F61E070E080E090E076
:101220000E94A51BCE0101960E94782E6DE573E009
:10123000CE0187960E94AA2E8091DD089091DE084B
:10124000189FF001199FF00D11248091DF089091F3
:10125000E008E80FF91FEE0FFF1F8091E108909161
:10126000E208E80FF91FE359F74F8081843059F500
:1012700080914409823009F564E473E0CE0101965F
:101280000E94AA2EBE016F5F7F4FCE0181960E9401
:10129000A22E6DE079E0CE0181960E94F22DBC0174
:1012A000CE0187960E94632ECE0181960E94782EF1
:1012B000CE0101960E94782E06C06DE079E0CE0145
:1012C00087960E944E2EAE01495D5F4F62E070E04E
:1012D00080E090E00E94A51BCE0187960E94782EA8
:1012E0006DE573E0CE0187960E94AA2E8091DD08FD
:1012F0009091DE082BE0289FF001299FF00D11242A
:101300008091DF089091E008E80FF91FEE0FFF1FB2
:101310008091E1089091E208E80FF91FE359F74F37
:101320008081843059F580914409833009F564E463
:1013300073E0CE0101960E94AA2EBE016F5F7F4F1F
:10134000CE0181960E94A22E61E279E0CE018196C3
:101350000E94F22DBC01CE0187960E94632ECE0121
:1013600081960E94782ECE0101960E94782E06C0AA
:1013700061E279E0CE0187960E944E2EAE01495D72
:101380005F4F63E070E080E090E00E94A51BCE011B
:101390008796B1C0CE0181960E946B2FCE01019637
:1013A0000E946B2F2D813E8136952795AE014F5DB2
:1013B0005F4F60E070E08AE090E0821B930B0E9438
:1013C000A51BCE0101960E94782ECE0181960E9427
:1013D000782ECE0101960E94BE2EAE014F5F5F4F68
:1013E00061E070E082C00E943C20DC01CB01AA27B2
:1013F000BB270091DE031091DF032091E0033091C1
:10140000E1034C015D01801A910AA20AB30A950119
:101410008401023811052105310508F427C780939E
:10142000DE039093DF03A093E003B093E1034091C8
:10143000DD03042E000C550B6EE578E0CE0101961D
:101440000E94B118AE014F5F5F4F60E070E080E036
:1014500090E00E94A51BCE0101960E94782E40913B
:10146000DD03042E000C550B4F5F5F4F6EE578E0F7
:10147000CE0101960E94B118AE014F5F5F4F61E04F
:1014800070E080E090E00E94A51BCE0101960E94D2
:10149000782E4091DD03042E000C550B4E5F5F4FFC
:1014A0006EE578E0CE0101960E94B118AE014F5F63
:1014B0005F4F62E070E080E090E00E94A51BCE01EB
:1014C00001960E94782E4091DD03042E000C550BEE
:1014D0004D5F5F4F6EE578E0CE0101960E94B11836
:1014E000AE014F5F5F4F63E070E080E090E00E94EC
:1014F000A51BCE0101960E94782EB8C6911184CA10
:1015000063E185EA99E00E94E722D092D0037CCA89
:10151000E0914B09F0914C098091490990914A0959
:1015200040914709509148092BE0249FD001259F05
:10153000B00D1124A80FB91FAA0FBB1FAE0FBF1FFC
:10154000A359B74F2C91243029F40E94DD1C0E942E
:10155000C21AC2CA209145093091460921153105A8
:1015600099F054F42F3F3F4F09F0B6CA2091DC03A5
:1015700021502093DC0308C02130310551F1223085
:10158000310509F44AC0A8CAA0916B08B0916C0853
:101590002D913C9121503109421753070CF09CCA00
:1015A0004F5F5F4F6BE0649F9001659F300D11248A
:1015B000820F931F880F991FE80FF91FE359F74F08
:1015C00080818F3F09F488CA5093480940934709A6
:1015D00083CAA0916B08B0916C0812962D913C9132
:1015E0001397821793070CF077CA01966BE0649FFC
:1015F0009001659F300D1124280F391F220F331FD2
:10160000E20FF31FE359F74F20812F3F09F464CA1B
:1016100090934A09809349095FCAA0916B08B091E1
:101620006C0814962D913C911597E217F3070CF076
:1016300053CA9F012F5F3F4F6BE0649FF001659F8E
:10164000F00D1124E80FF91FEE0FFF1FE20FF31F3B
:10165000E359F74F80818F3F09F43ECA30934C091C
:1016600020934B0939CA80914B0990914C092091E4
:10167000490930914A0940914709509148096BE066
:10168000649FF001659FF00D1124E20FF31FEE0F30
:10169000FF1FE80FF91FE359F74F6081643029F409
:1016A0000E94211B0E94C21A54CA60914509709180
:1016B00046096115710591F054F46F3F7F4F09F0B1
:1016C00048CA8091DC038F5F8093DC0307C06130E0
:1016D000710579F062307105B9F03BCA41155105C9
:1016E00009F437CA415051095093480940934709BA
:1016F00030CA2130310509F42CCA21503109309308
:101700004A092093490925CA8130910509F421CA63
:10171000019790934C0980934B091BCA8130910526
:1017200059F08230910569F0009709F02CCA1092A7
:1017300048091092470909C010924A0910924909B4
:1017400004C010924C0910924B09019790934609DE
:10175000809345091ACA20914709309148098BE0C6
:10176000829FD001839FB00D1124809149099091EF
:101770004A09A80FB91FAA0FBB1F80914B0990916E
:101780004C09A80FB91FA359B74F8C918330A1F40E
:10179000E130F10509F48EC00CF08CC0EF3FBFEFD3
:1017A000FB0709F40ECA309709F084C023303105D5
:1017B00009F080C019957EC0843009F07EC0E13008
:1017C000F10539F00CF076C0EF3FFF4F0CF0F9C98E
:1017D00071C02230310509F06DC02091430980911C
:1017E000440990E0820F911D892B09F463C06EE9D2
:1017F00072E08CEF95E00E94F93165EA72E084E3D3
:1018000094E00E947931809143094091440950E06D
:10181000480F511D052E000C660B770B2AE084E360
:1018200094E00E94173084E394E00E94603010E05E
:1018300063E278E088EB95E00E9424338823F9F096
:101840001F5F212F30E0409143098091440990E0CF
:10185000840F911D2817390769F461EB72E084E366
:1018600094E00E9479310E94011C84E394E00E947C
:10187000603005C088EB95E00E943F15D9CF62EC3F
:1018800072E08CEF95E00E94F93140E050E0BA013F
:1018900083E298E00E946C27809145099091460967
:1018A0000197909346098093450910924A09109236
:1018B000490987C90E941C3584C9E330F1052CF41D
:1018C0003196F0934609E09345098091450990913E
:1018D00046098130910561F08230910509F45AC0C2
:1018E000892B09F06EC9109248091092470969C9FD
:1018F00090934A09809349092230310509F061C962
:1019000088EB95E00E943F156EE972E08CEF95E060
:101910000E94F931811104C086E292E00E94CC1C41
:1019200010E063E278E088EB95E00E94243388239E
:10193000D9F01F5F412F50E060E070E02AE084E3BF
:1019400094E00E94173064EC72E084E394E00E941B
:1019500079310E94011C84E394E00E94603088EB9E
:1019600095E00E943F15DDCF62EC72E08CEF95E0D0
:101970000E94F93140E050E0BA0183E298E00E9411
:101980006C271093420910924309109244090E9457
:10199000C21A17C981E090E090934C0980934B09DB
:1019A00010C90930110508F45CC06091F80370910A
:1019B000F903072E000C880B990B0E94A93E9B018E
:1019C000AC0162ED72E0CE0101962DA73EA74FA7B4
:1019D00058AB0E94AA2E00E02DA53EA54FA558A900
:1019E000BE016F5F7F4FCE0181960E94DE33609112
:1019F000020224C06091F6037091F703072E000CD9
:101A0000880B990B0E94A93E9B01AC016DED72E021
:101A1000CE0101962DA73EA74FA758AB0E94AA2E34
:101A200000E02DA53EA54FA558A9BE016F5F7F4FD1
:101A3000CE0181960E94DE3360910302062E000CD7
:101A4000770BAE014F5D5F4F8EE598E00E94CE357B
:101A5000CE0181960E94782ECE0101960E94782EAA
:101A600046CBF8018827EE58FF4F8F4F0C94214149
:101A70006091F4037091F503072E000C880B990B0D
:101A80000E94A93E9B01AC0168EE72E0CE01019676
:101A90002DA73EA74FA758AB0E94AA2E00E02DA568
:101AA0003EA54FA558A9BE016F5F7F4FCE0181961D
:101AB0000E94DE3360910402C1CF6091F203709105
:101AC000F303072E000C880B990B0E94A93E9B0183
:101AD000AC0163EF72E0CE0101962DA73EA74FA7A0
:101AE00058AB0E94AA2E00E02DA53EA54FA558A9EF
:101AF000BE016F5F7F4FCE0181960E94DE33609101
:101B000005029CCF6091F0037091F103072E000C49
:101B1000880B990B0E94A93E9B01AC016EEF72E00D
:101B2000CE0101962DA73EA74FA758AB0E94AA2E23
:101B300000E02DA53EA54FA558A9BE016F5F7F4FC0
:101B4000CE0181960E94DE336091060277CF6091CC
:101B5000EE037091EF03072E000C880B990B0E9487
:101B6000A93E9B01AC0169E073E0CE0101962DA76F
:101B70003EA74FA758AB0E94AA2E00E02DA53EA578
:101B80004FA558A9BE016F5F7F4FCE0181960E947D
:101B9000DE336091070252CF6091EC037091ED0348
:101BA000072E000C880B990B0E94A93E9B01AC01EB
:101BB00064E173E0CE0101962DA73EA74FA758AB75
:101BC0000E94AA2E00E02DA53EA54FA558A9BE0152
:101BD0006F5F7F4FCE0181960E94DE3360910802D5
:101BE0002DCF6FE173E0CE0101960E94AA2E00E096
:101BF00020E030E0A901BE016F5F7F4FCE018196EA
:101C00000E94DE336091090219CF80E40E949B217B
:101C1000BC01990F880B990B0E94A93E20E030E08F
:101C20004FEF53E40E94F43F20E030E040E951E4FC
:101C30000E9459409B01AC016093E8037093E90353
:101C40008093EA039093EB036EE273E0CE0101967A
:101C50002DA73EA74FA758AB0E94AA2E01E02DA5A5
:101C60003EA54FA558A9BE016F5F7F4FCE0181965B
:101C70000E94DE3360910A02E1CE81E40E949B2142
:101C8000BC01990F880B990B0E94A93E20E030E817
:101C90004DEF53E40E94F43F20E030E048E951E486
:101CA0000E9459409B01AC016093E4037093E503EB
:101CB0008093E6039093E70369E373E0CE01019616
:101CC0002DA73EA74FA758AB0E94AA2E01E02DA535
:101CD0003EA54FA558A9BE016F5F7F4FCE018196EB
:101CE0000E94DE3360910B02A9CE60E083E10E9486
:101CF000831B63E085EA99E00E9491210930110578
:101D000008F455C06091F8037091F903072E000C98
:101D1000880B990B0E94A93E9B01AC0162ED72E019
:101D2000CE0101962DA73EA74FA758AB0E94AA2E21
:101D300000E02DA53EA54FA558A9BE016F5F7F4FBE
:101D4000CE0181960E94DE3360910202062E000CC5
:101D5000770BAE014F5D5F4F8EE598E00E94CE3568
:101D6000CE0181960E94782ECE0101960E94782E97
:101D70008091F8039091F9030E944831209102026A
:101D8000022E000C330B809160089091610801973E
:101D90002817390729F488ED95E00E946030A7C91B
:101DA00060ED72E088ED95E00E947931A0C9F801FC
:101DB0008827E558FF4F8F4F0C9421416091F6031F
:101DC0007091F703072E000C880B990B0E94A93E17
:101DD0009B01AC016DED72E0CE0101962DA73EA7EF
:101DE0004FA758AB0E94AA2E00E02DA53EA54FA5F7
:101DF00058A9BE016F5F7F4FCE0181960E94DE33EE
:101E000060910302062E000C770BAE014F5D5F4F11
:101E10008EE598E00E94CE35CE0181960E94782E04
:101E2000CE0101960E94782E8091F6039091F703DF
:101E30000E94483120910302A3CF6091F403709176
:101E4000F503072E000C880B990B0E94A93E9B01FD
:101E5000AC0168EE72E0CE0101962DA73EA74FA718
:101E600058AB0E94AA2E00E02DA53EA54FA558A96B
:101E7000BE016F5F7F4FCE0181960E94DE3360917D
:101E80000402062E000C770BAE014F5D5F4F8EE50E
:101E900098E00E94CE35CE0181960E94782ECE0128
:101EA00001960E94782E8091F4039091F5030E9490
:101EB00048312091040264CF6091F2037091F303E2
:101EC000072E000C880B990B0E94A93E9B01AC01C8
:101ED00063EF72E0CE0101962DA73EA74FA758AB46
:101EE0000E94AA2E00E02DA53EA54FA558A9BE012F
:101EF0006F5F7F4FCE0181960E94DE3360910502B5
:101F0000062E000C770BAE014F5D5F4F8EE598E01B
:101F10000E94CE35CE0181960E94782ECE01019688
:101F20000E94782E8091F2039091F3030E94483131
:101F30002091050225CF6091F0037091F103072EE7
:101F4000000C880B990B0E94A93E9B01AC016EEF1F
:101F500072E0CE0101962DA73EA74FA758AB0E9475
:101F6000AA2E00E02DA53EA54FA558A9BE016F5F82
:101F70007F4FCE0181960E94DE3360910602062ECD
:101F8000000C770BAE014F5D5F4F8EE598E00E942D
:101F9000CE35CE0181960E94782ECE0101960E9408
:101FA000782E8091F0039091F1030E9448312091A6
:101FB0000602E6CE6091EE037091EF03072E000C4F
:101FC000880B990B0E94A93E9B01AC0169E073E06C
:101FD000CE0101962DA73EA74FA758AB0E94AA2E6F
:101FE00000E02DA53EA54FA558A9BE016F5F7F4F0C
:101FF000CE0181960E94DE3360910702062E000C0E
:10200000770BAE014F5D5F4F8EE598E00E94CE35B5
:10201000CE0181960E94782ECE0101960E94782EE4
:102020008091EE039091EF030E94483120910702C6
:10203000A7CE6091EC037091ED03072E000C880B86
:10204000990B0E94A93E9B01AC0164E173E0CE01B3
:1020500001962DA73EA74FA758AB0E94AA2E00E0DD
:102060002DA53EA54FA558A9BE016F5F7F4FCE019C
:1020700081960E94DE3360910802062E000C770BD9
:10208000AE014F5D5F4F8EE598E00E94CE35CE01E8
:1020900081960E94782ECE0101960E94782E809122
:1020A000EC039091ED030E9448312091080268CE24
:1020B0006FE173E0CE0101960E94AA2E00E020E0BD
:1020C00030E0A901BE016F5F7F4FCE0181960E9473
:1020D000DE3360910902062E000C770BAE014F5DD6
:1020E0005F4F8EE598E00E94CE35CE0181960E942A
:1020F000782ECE0101960E94782E6AE273E088ED78
:1021000095E00E947931209109023ACE80E40E9444
:102110009B21BC01990F880B990B0E94A93E20E0DE
:1021200030E04FEF53E40E94F43F20E030E040E91C
:1021300051E40E9459409B01AC016093E803709305
:10214000E9038093EA039093EB036EE273E0CE0120
:1021500001962DA73EA74FA758AB0E94AA2E01E0DB
:102160002DA53EA54FA558A9BE016F5F7F4FCE019B
:1021700081960E94DE3360910A02062E000C770BD6
:10218000AE014F5D5F4F8EE598E00E94CE35CE01E7
:1021900081960E94782ECE0101960E94782E609141
:1021A000E8037091E9038091EA039091EB030E94A8
:1021B0007C3020910A02E4CD81E40E949B21BC0185
:1021C000990F880B990B0E94A93E20E030E84DEF53
:1021D00053E40E94F43F20E030E048E951E40E94DB
:1021E00059409B01AC016093E4037093E503809335
:1021F000E6039093E70369E373E0CE0101962DA710
:102200003EA74FA758AB0E94AA2E01E02DA53EA5E0
:102210004FA558A9BE016F5F7F4FCE0181960E94E6
:10222000DE3360910B02062E000C770BAE014F5D82
:102230005F4F8EE598E00E94CE35CE0181960E94D8
:10224000782ECE0101960E94782E6091E403709161
:10225000E5038091E6039091E7030E947C30209192
:102260000B028ECD8093DD030C94BA08E0960FB676
:10227000F894DEBF0FBECDBFDF91CF911F910F91BC
:10228000FF90EF90DF90CF90BF90AF909F908F9096
:1022900008950F931F93CF93DF93EC018B016E8111
:1022A0007F816115710551F0CE01F801199518165D
:1022B000190624F00E80DF81C02DF1CFCE01DF9111
:1022C000CF911F910F9108954F925F926F927F92DD
:1022D0008F929F92AF92BF92CF92DF92EF92FF9236
:1022E0000F931F93CF93DF93DC0112962D913C91B6
:1022F0001397223031050CF472C05B016C012C0184
:10230000B4E04B0E511C7201D701CD91DC912097A6
:10231000D1F3B501CE01BDDF4C01FC01068117816F
:102320000115110559F4E414F50469F7D60117965F
:102330009C938E9316971C961C9251C0B501C801B0
:10234000A8DFFC0166807780D40117961C921E924C
:10235000169717821682B801CE01F5011995181645
:1023600019068CF0D701CD93DC937E01B6E0EB0E1D
:10237000F11C0E80DF81C02D209769F7F801D7018D
:102380000D931C931FC0F701118300837801F6E0C1
:10239000EF0EF11CD80116960D911C91179701159F
:1023A0001105C9F6F701D183C0838E819F81009703
:1023B00011F0EC01FACF7F826E827E01F6E0EF0E23
:1023C000F11CA2CF86819781009711F0FC01FACF12
:1023D000778266827F0186E0E80EF11C95CFDF915F
:1023E000CF911F910F91FF90EF90DF90CF90BF9012
:1023F000AF909F908F907F906F905F904F900895D7
:102400000E943C2028EE33E040E050E00E94D23FA2
:10241000CA01B90108950F931F93CF93DF9300D0A2
:1024200000D0CDB7DEB78C01D801ED91FC910190C1
:10243000F081E02DC8011995181619067CF4D80111
:10244000ED91FC910684F785E02DB801CE0101964F
:102450001995CE0101960E94782EE6CF26960FB6EA
:10246000F894DEBF0FBECDBFDF91CF911F910F91CA
:102470000895AF92BF92CF92DF92EF92FF920F93A7
:102480001F93CF93DF9300D000D0CDB7DEB77C0190
:102490008B01DB0112968D919C91139718161906EA
:1024A00034F06DE573E0C7010E94AA2E3DC001978C
:1024B00099F1FB0164817581DB011696AD90BC90AA
:1024C0001797CE0101960E94A22EF801C480D580F4
:1024D000C114D10431F0C6010E94782EC6010E94B9
:1024E000633BD8011596BC92AE92149712968D91CB
:1024F0009C911397019713969C938E9312971C9619
:102500001C92BE016F5F7F4FC7010E947D2ECE01DE
:1025100001960E94782E08C0DB01ED91FC910484A5
:10252000F585E02DC7011995C70126960FB6F894D9
:10253000DEBF0FBECDBFDF91CF911F910F91FF90F6
:10254000EF90DF90CF90BF90AF900895CF92DF9241
:10255000EF92FF920F931F93CF93DF9300D000D0A1
:10256000CDB7DEB78C016B01DC0112968D919C9189
:102570001397892BA1F4ED91FC91E480F580CE01B5
:1025800001960E94A22EBE016F5F7F4FC801F70126
:102590001995182FCE0101960E94782E25C088E04B
:1025A00090E00E94CE3A7C0188E0D7011D928A9586
:1025B000E9F76DE573E0C7010E94AA2EF801848156
:1025C0009581D70117969C938E931697B601C701F4
:1025D0000E94632EF801F582E48282819381019644
:1025E00093838283148611E0812F26960FB6F89488
:1025F000DEBF0FBECDBFDF91CF911F910F91FF9036
:10260000EF90DF90CF900895CF92DF92EF92FF92FC
:102610000F931F93CF93DF93EC01862F488959893D
:102620006A897B898A019B01E5E036952795179594
:102630000795EA95D1F7102F1F7011F0811151C045
:1026400098819923D9F18A8180FF38C093FF63C0B4
:10265000C88CD98CEA8CFB8CC41AD50AE60AF70A16
:1026600022E0C216D104E104F10408F44EC09A013C
:10267000317095FD61C0EE81FF8103816A017B01AC
:1026800089E0F694E794D794C7948A95D1F70C2102
:10269000232B09F07EC001117CC0452B462B472B14
:1026A00009F45CC04C855D856E857F859E01245F45
:1026B0003F4FCF010E946B2687FF60C089818260F7
:1026C00089838FEF9FEF0197E9F488899989AA8917
:1026D000BB894F96A11DB11D888B998BAA8BBB8B93
:1026E00008C0405E5F4F6F4F7F4F488B598B6A8B9E
:1026F0007B8B8E819F81879620E2129F800D911D9A
:10270000112480C080E090E07DC0CD28CE28CF2865
:1027100009F0ADCF0EC095FFAACFEE81FF81868173
:10272000978125E0880F991F2A95E1F7841795076F
:1027300019F480E090E061C099E07695679557952F
:1027400047959A95D1F7EE81FF81848D958DA68D61
:10275000B78D480F591F6A1F7B1F39C096FF05C0F0
:10276000848D958DA68DB78D04C08C8D9D8DAE8D7D
:10277000BF8D8C879D87AE87BF870BC0811109C035
:102780008881807709F49ACF81E090E021E030E001
:1027900036C0EE81FF814C855D856E857F85425018
:1027A000510961097109048004C0440F551F661F57
:1027B000771F0A94D2F780899189A289B389480F3B
:1027C000591F6A1F7B1F400F511D611D711D8E8196
:1027D0009F8120E080960E942D26892B09F46ECFE0
:1027E00088899989AA89BB890196A11DB11D888B09
:1027F000998BAA8BBB8B81E090E020E030E0821BBC
:10280000930B61CFDF91CF911F910F91FF90EF90CC
:10281000DF90CF900895FC018081811114C080E287
:10282000DF01982F1D929A95E9F777836683DB0184
:1028300015969C91903119F0903229F480E48083B0
:1028400081E08283089580E008956F927F928F9255
:102850009F92AF92BF92CF92DF92EF92FF920F932F
:102860001F93CF93DF9300D01F92CDB7DEB77C01CB
:10287000722E80E2D7011D928A95E9F7FB01C6808E
:10288000D780D7011796DC92CE92169715965C9357
:102890004E931497848D958DA68DB78DF701808703
:1028A0009187A287B3874F705527D601979695E0F9
:1028B000440F551F9A95E1F7A40FB51F1B968C91F5
:1028C0001B9783FF04C0D7011C9280E097C0F601DC
:1028D000E40FF51F82A98771F70180831B969C91F5
:1028E000987111F488608083D70113960C93139725
:1028F000872D827319F08C91817129F7872D8F7044
:10290000F7018283F60183A194A1A5A1B6A1F701E5
:10291000848B958BA68BB78BF601E40FF51F83ACE8
:1029200094ACA12CB12CB401552744279F012F5BF7
:102930003F4FD9018D909C90A12CB12C842A952ACF
:10294000A62AB72A74FE33C081149104A104B104ED
:1029500009F44EC09E012F5F3F4FB501A401C6018F
:102960000E946B26682E87FDAECF00E010E0980134
:10297000B501A401C6010E947C24882309F4A3CFD9
:10298000F601408551856285738584169506A606F5
:10299000B70620F480869186A286B38689809A80C5
:1029A000AB80BC806110D6CF811122C08CCFD70103
:1029B0005C968D929D92AD92BC925F97ED5BFF4FBE
:1029C00080819181A281B381F701808F918FA28F45
:1029D000B38F75FE12C0D70158964D915D916D91E0
:1029E0007C915B97C7010E946C27811106C06BCF59
:1029F000F701828180688283ECCF81E00F900F9095
:102A00000F900F90DF91CF911F910F91FF90EF905A
:102A1000DF90CF90BF90AF909F908F907F906F90FE
:102A20000895CF93DF93DC01FC0190E048E080E063
:102A30005EE220812032C1F0983031F4EB01C80F02
:102A4000D11D58838F5F40E120813FEB320F3A3137
:102A500030F41C963C911C97342309F0205EEB0166
:102A6000C80FD11D28838F5F9F5F31969B3009F778
:102A7000FB01E80FF11D1082DF91CF910895CF93F4
:102A8000DF93EC010E9431271882DF91CF910895E6
:102A90002F923F924F925F926F927F928F929F926E
:102AA000AF92BF92CF92DF92EF92FF920F931F935C
:102AB000CF93DF93CDB7DEB7E4970FB6F894DEBFC0
:102AC0000FBECDBF6C017A01922E19821A82DC01F1
:102AD0008C91811168C1FB018081807709F463C109
:102AE000FA0180818F32B9F47F0181918F32E1F355
:102AF000DB0116966D917C911797811103C0C60179
:102B00008ADE56C1CE01019686DE882309F44BC1C8
:102B1000BE016F5F7F4F5E01B2E3AB0EB11CF701E8
:102B20002FEFE21AF20A80818032C9F3FDA3ECA3F1
:102B3000DF019D012E1B3F0B8D918823D9F08F3231
:102B4000C9F08C3509F42FC1982F977F923209F480
:102B50002AC18A3309F427C1982F9F7B9C3309F43B
:102B600022C192EC980F923008F41DC180528F352B
:102B700000F319C1AF01420F531FCA017C01DC01F0
:102B80002D91CD012AAB2032C9F32F32B9F39A012E
:102B90002E1B3F0B4E175F0741F0DA019E91AD01EE
:102BA0009E32A9F3903299F303C080E090E006C012
:102BB000C9012F3F310511F00CF0F5C09BA38AA38A
:102BC000DE01979620E22D93AA15BB05D9F7DF0108
:102BD0009D012E1B3F0B4D914E32D1F34032C1F37C
:102BE0003CAB2BAB51E0232B09F050E08C010150A2
:102BF000110938F09F01200F311FD9012C912E327D
:102C0000B1F76EA027E0722E312C512C812C38E0C8
:102C1000432EABA9BCA9A817B9070CF080C02BA9FB
:102C20003CA92E0F3F1FD9014C91403209F460C0DE
:102C30004E3239F42BA93CA90217130709F058C0EA
:102C400004C04232A1F04C3791F026ED240F26301B
:102C500010F44D3261F426EC240F263040F025EAC2
:102C6000240F233020F02FED240F2E3530F0ABA9A8
:102C7000BCA9A017B10781F43FC02BA93CA920171C
:102C80003107D1F1731410F1242F3FE9340F3A3199
:102C900040F44052842809C07314C0F050E04FE55E
:102CA0002FE521542A3108F4542822242394230C9C
:102CB00027E230E02C0F3D1F230D311DD9014C932D
:102CC000B6E0B215B8F0622C322C22C03AE073168E
:102CD00009F46BC0ABA9BCA90A171B070CF465C0AB
:102CE0001CAB0BAB5AE0752EA8E03A2EB0E14B2E90
:102CF00050E00EC0322C0CC02AE0721609F455C008
:102D00001CAB0BAB2AE0722E38E0332E40E1442E90
:102D10002BA93CA92F5F3F4F3CAB2BAB7ACF6EA2C8
:102D20008FA1803209F43FC0552339F0582011F4A7
:102D3000882D01C082E089A314C081E089A38EA1FF
:102D400090E0E7E2F0E0EC0FFD1FE80FF91F2EE73F
:102D50002083E8E2F0E0EC0FFD1FE80FF91F21E30C
:102D60002083FAA9FF23B9F021E0AE014F5D5F4F48
:102D7000C6010E942F288823B1F0F601DE011196CA
:102D800080E201900D928A95E1F7C60178DEBE01DE
:102D90006F5F7F4FC4CE292DAE014F5D5F4FC601DF
:102DA0000E942F2805C080E003C06EA250E0B8CF7B
:102DB000E4960FB6F894DEBF0FBECDBFDF91CF9182
:102DC0001F910F91FF90EF90DF90CF90BF90AF9049
:102DD0009F908F907F906F905F904F903F902F903B
:102DE0000895CF93DF93EC01262F4C895D896E897E
:102DF0007F898E819F8180960E942D26009761F0A9
:102E00002C813D812F70332745E0220F331F4A95D7
:102E1000E1F7820F931F02C080E090E0DF91CF9135
:102E200008953F924F925F926F927F928F929F92FE
:102E3000AF92BF92CF92DF92EF92FF920F931F93C8
:102E4000CF93DF93CDB7DEB728970FB6F894DEBFE8
:102E50000FBECDBF4C01DC0112968C911297806899
:102E600012968C9312971C964D905D906D907C906D
:102E70001F971696AD90BC901797411451046104AA
:102E8000710461F4D50118968D919D910D90BC91BE
:102E9000A02D8D839E83AF83B88704C04D825E8250
:102EA0006F827886CD80DE80EF80F884BFEFCB1A0A
:102EB000DB0AEB0AFB0AF501808D918DA28DB38DA3
:102EC0008C159D05AE05BF0528F482E0C82ED12CD7
:102ED000E12CF12C9E012F5F3F4FB701A601C501E8
:102EE0000E946B2687FD20C0882341F089819A814A
:102EF000AB81BC81892B8A2B8B2B51F08D819E81DC
:102F0000AF81B885C816D906EA06FB0679F60CC06B
:102F10000FEF1FEF2FEF3FE0B701A601C5010E94A1
:102F20007C24382E811102C0312C1BC04114510465
:102F30006104710451F097018601B301A201C5013A
:102F40000E947C24811108C0EFCFD5011896CD9244
:102F5000DD92ED92FC921B97F401C486D586E6863D
:102F6000F786832D28960FB6F894DEBF0FBECDBF2F
:102F7000DF91CF911F910F91FF90EF90DF90CF9055
:102F8000BF90AF909F908F907F906F905F904F9089
:102F90003F900895CF93CFB7F89480911204811198
:102FA00027C0E4E2F3E08491EAE6F3E09491E82FAD
:102FB000F0E0EE0FFF1FEF55FD4FA591B491EC919E
:102FC000E92321F461E085E30E94912061E085E33B
:102FD0000E94CF208CB580618CBD8CB580648CBD87
:102FE00061E084E30E94CF2061E083E30E94CF2070
:102FF000809112048F5F80931204CFBFCF91089508
:10300000DC011496ED91FC9115971C968C911C9700
:10301000882361F01A962D913C911B9762177307D4
:103020002CF01896ED91FC9119970AC020E030E041
:1030300007C03097C9F00680F781E02D2F5F3F4F22
:1030400026173707B4F32617370771F481E01C966B
:103050008C931C971B963C932E931A971996FC936E
:10306000EE931897CF01089580E090E00895AF9215
:10307000BF92CF92DF92EF92FF920F931F93CF9365
:10308000DF9300D000D0CDB7DEB77C018B01FB0110
:1030900062817381161617062CF06DE573E00E94AD
:1030A000AA2E4DC0F80114866130710521F16250DD
:1030B0007109C801A5DF6C01FC0166817781CE0131
:1030C00001960E94A22EF601A680B780A114B10439
:1030D00031F0C5010E94782EC5010E94633BF601C4
:1030E00017821682F801D782C68282819381019766
:1030F000938382831AC0F80164817581CE010196A1
:103100000E94A22EF801C480D580C114D10431F0F0
:10311000C6010E94782EC6010E94633BF801158209
:1031200014821782168213821282BE016F5F7F4F54
:10313000C7010E947D2ECE0101960E94782EC70104
:1031400026960FB6F894DEBF0FBECDBFDF91CF91AC
:103150001F910F91FF90EF90DF90CF90BF90AF90B5
:103160000895CF93DF93EC01CB01BA0149DF0097BB
:1031700029F0BC01CE010E94A22E05C06DE573E0CE
:10318000CE010E94AA2ECE01DF91CF9108958F9299
:103190009F92AF92BF92CF92DF92EF92FF92CF9326
:1031A000C82F1092010681E090E0A0E0B0E080938B
:1031B000040690930506A0930606B09307068CEFCD
:1031C00095E090931E0680931D0610921C068FEFCB
:1031D0009FEFDC0180931F0690932006A0932106A9
:1031E000B0932206CC2331F1C53008F0DCC020E0DA
:1031F00040E050E0BA018CE196E00E942D26009755
:1032000009F4D1C020E1C29F800D911D1124409787
:10321000FC01E254FE4F20812F7709F0C4C038969C
:1032200080809180A280B38081149104A104B104B4
:1032300021F4B9C0812C912C540120E0B501A401E6
:103240008CE196E00E942D26FC01892B09F4ABC08D
:10325000838594858115924009F0A5C080898230CC
:1032600009F0A1C0468557854115510509F49BC059
:1032700025852093FE058FEF820F8093FF0580E068
:1032800091E0291751F031E0380F393019F480936B
:10329000000689C0990F832FF4CF80930006C6885B
:1032A000D788C114D10419F0E12CF12C04C0C4A0BA
:1032B000D5A0E6A0F7A0C0920806D0920906E09239
:1032C0000A06F0920B06D501C401840F951FA11DBB
:1032D000B11D8093100690931106A0931206B0932F
:1032E0001306218932893093030620930206CC0C01
:1032F000DD1CEE1CFF1CC80ED91EEA1EFB1EC09270
:103300001806D0921906E0921A06F0921B0655E0B4
:10331000220F331F5A95E1F721503E4F232F3327B9
:103320002695C20ED31EE11CF11CC0920C06D09251
:103330000D06E0920E06F0920F06238934892115BE
:10334000310521F0C901A0E0B0E004C080A191A145
:10335000A2A1B3A1B501A4014C195D096E097F09B1
:10336000480F591F6A1F7B1F0090000604C0769506
:103370006795579547950A94D2F7DB01CA010196E4
:10338000A11DB11D8093140690931506A0931606F7
:10339000B0931706453F8FE058076105710528F483
:1033A0008CE08093010680E017C0453F5F4F6105C8
:1033B000710510F480E10DC084A595A5A6A5B7A55B
:1033C0008093180690931906A0931A06B0931B06D3
:1033D00080E28093010681E0CF91FF90EF90DF9033
:1033E000CF90BF90AF909F908F900895CF92DF9233
:1033F000FF920F931F93CF93DF931F92CDB7DEB74A
:10340000F82E162F042F60E080915C08798389D60E
:1034100083E00E9442228F2D0E944222F12EC12E73
:103420007981D72E8C2D8F19801738F480E00E9477
:103430004222F60181936F01F5CF61E080915C0833
:103440000F90DF91CF911F910F91FF90DF90CF9060
:1034500068C61F93CF93DF93182FCCE4D8E060E0C9
:1034600088895FD683E00E944222812F0E944222F7
:1034700080E00E944222182F61E0888952D6812F75
:10348000DF91CF911F9108950F931F93CF93DF93F7
:1034900000D01F92CDB7DEB7182F10924C081092B3
:1034A0004D0810924E0810924F081092500844E0B8
:1034B000BE016F5F7F4F9ADF8A819981482F50E06C
:1034C00065E0559547956A95E1F728E0929F400D94
:1034D000511D1124052E000C660B770B40934D08EF
:1034E00050934E0860934F087093500883FF29C093
:1034F00092E0440F551F661F771F9A95D1F783708E
:10350000480F511D611D711D762F652F542F4427C3
:103510008B81480F511D611D711D762F652F542F12
:1035200044278C81480F511D611D711D40934D082A
:1035300050934E0860934F087093500881E0809339
:103540004C088FEF810F85DF082F84E0810F81DF2A
:10355000482F03FF04C081E080935A0802C01092F4
:103560005A084F704093510862E578E085E0810F7A
:103570003DDF0F900F900F900F90DF91CF911F9133
:103580000F9108950F931F93CF93DF936EE972E02D
:103590008CEF95E00E94F931D0914209D43008F0C7
:1035A000D4E0C0914309C1112CC067E473E085EEFB
:1035B00098E00E94274209EF18E0C1E0CD1780F49F
:1035C00063E278E088EB95E00E942433C8010E9412
:1035D0003F3288EB95E053DACF5F0C5E1F4FEECFA2
:1035E00040E050E0BA0183E298E00E946C2762EC70
:1035F00072E08CEF95E0DF91CF911F910F910C94C9
:10360000F931C15051F063E278E088EB95E00E9417
:10361000243388EB95E033DAF4CF05EE18E0CD17CC
:10362000F9F263E278E088EB95E00E942433C80168
:103630000E943F3288EB95E022DACF5F0C5E1F4F8D
:10364000EECF2091DD083091DE088091DF08909167
:10365000E0084BE0429FF001439FF00D1124E80F7A
:10366000F91FEE0FFF1F4091E1085091E208E40FAF
:10367000F51FE359F74F40814430D9F48091440954
:10368000833021F08F5F809344090895809143092E
:10369000482F50E04D5F5F4F2091420930E04217C4
:1036A000530719F08F5F809343092091430930E05D
:1036B00024C02115310591F44091E40841111DC049
:1036C0004091E3088359974FFC01E853FF4F44238F
:1036D00011F0108212C081E080830FC021303105CB
:1036E00051F48091E308882319F01092350903C042
:1036F00081E08093350920E030E0C901089561E060
:1037000085EA99E064C7CF93DF9300D01F92CDB7CD
:10371000DEB7198220E42A8324E12B8324E52C835D
:103720002091B709621708F060E0FE01E60FF11D75
:103730009181682F690F606885EA99E00F900F907A
:103740000F900F90DF91CF9142C7CF93DF93EA01A3
:10375000DADF4C815D816881798185EA99E0DF91CA
:10376000CF910C942F2DE4E3F4E0A089B18982E09D
:103770008C93A485B5851C92A685B78580E18C9332
:10378000108EA489B58986E08C93A289B3898C9127
:1037900080618C93A289B3898C9188608C93A28973
:1037A000B3898C9180688C930288F389E02D8081A5
:1037B0008F7D8083089583E498E09093FD05809346
:1037C000FC0583E298E05BD981E0E1DC882341F0ED
:1037D0006CEF75E083E298E01ED8882329F006C0DC
:1037E00080E0D5DC8111F4CF80E00895909123082A
:1037F0009077D1F323E238E0309321042093200422
:1038000008958F929F92BF92CF92DF92EF92FF9294
:103810000F931F93CF93DF93CDB7DEB7AD970FB65E
:10382000F894DEBF0FBECDBF19821A828091BB050E
:10383000811117C08091B805882309F499C080765A
:1038400021F08FE289A31AA28BC060E088EB95E09B
:10385000C8DA009709F48CC0BE016F5D7F4FE1D8D4
:103860007FC08091C0059091C105A091C205B09123
:10387000C3056091BE057091BF059E012F5F3F4F4C
:1038800079010097A105B10539F4C9010E940B1413
:10389000882309F46DC00FC020E2F70111922A9528
:1038A000E9F720E1298321E02B8378876F838D8FCF
:1038B0009E8FAF8FB8A3BB24B39400E010E080913B
:1038C000BB058B1508F454C0CB2CD12C4091BC0502
:1038D0005091BD054C195D0960E070E085E0440F32
:1038E000551F661F771F8A95D1F7C7010E946C2765
:1038F0008823F1F160E0C7010E9404134C01009796
:10390000B9F1FC0183858F3099F580818F7190E04A
:10391000C816D90669F5D12C6D2DC4010E94FD266B
:103920000097B1F08F37910510F08FE390E0E091B0
:103930003404F09135040190F081E02D682F84E388
:1039400094E019950F5F1F4FD394FDE0DF12E4CF91
:10395000F401808186FD02C0B394B1CFC8010AC0D2
:10396000BE016F5D7F4F84E394E00E94E82602C0B1
:1039700080E090E0AD960FB6F894DEBF0FBECDBFED
:10398000DF91CF911F910F91FF90EF90DF90CF903B
:10399000BF909F908F900895CF93DF93BC0184E3F5
:1039A00094E00E947B31EC0184E394E00E9460305B
:1039B0008C0F9D1FDF91CF9108952091DD083091EC
:1039C000DE088091DF089091E0084BE0429FF00113
:1039D000439FF00D1124E80FF91FEE0FFF1F4091D8
:1039E000E1085091E208E40FF51FE359F74F4081D9
:1039F000443099F480914409882321F081508093C8
:103A00004409089580914309882319F081508093D7
:103A100043092091430930E024C02115310591F478
:103A20004091E40841111DC04091E3088359974F2C
:103A3000FC01E853FF4F442311F0108212C081E0D3
:103A400080830FC02130310551F48091E308882331
:103A500019F01092350903C081E08093350920E008
:103A600030E0C9010895EF92FF920F931F93CF9317
:103A7000DF931F92CDB7DEB7082F162F8CE4E82E08
:103A800088E0F82E60E0F701808949834AD385E019
:103A9000F9D4802FF7D4812FF5D44981842FF2D423
:103AA00061E0F70180890F90DF91CF911F910F9115
:103AB000FF90EF9036C3CF9360E080915C0831D3E4
:103AC00080EAE0D480E0DED4C82F61E080915C0819
:103AD00028D3C0FF05C081E6D7DC40E061E006C026
:103AE000C1FF54C081E7D0DC40E062E08CE2BBDF84
:103AF00080914C08882389F080914D0890914E0860
:103B0000A0914F08B0915008B06880934D089093F1
:103B10004E08A0934F08B093500880915A0888230C
:103B200089F080914D0890914E08A0914F08B09176
:103B30005008B06480934D0890934E08A0934F08AE
:103B4000B093500880914D0890914E08A0914F0875
:103B5000B091500880931C0490931D04A0931E0400
:103B6000B0931F048091510880931B04A2E5B8E034
:103B7000E3E1F4E090E09F01235134402817390736
:103B80001CF42D912193F7CF80E001C084E0CF9108
:103B900008958F929F92AF92BF92FF920F931F93BF
:103BA000CF93DF93182FF62E072F1092460810920E
:103BB00043081092480889E498E090934508809360
:103BC00044085AD24B015C01C0914408D091450889
:103BD0001A8361E0812FE3D261E08A81A2D2DAD92F
:103BE000E0914408F091450882E58083118283E4E6
:103BF00098E0BFD5E0914408F091450861E08281EA
:103C000090D2DAE08FEF65D5D150E1F7E401E09191
:103C10004408F091450860E0828183D220E030E0E2
:103C2000A90160E083E498E0BCD5813041F024D262
:103C30006C1B7D0B613D774088F380E251C02AEA1E
:103C400031E040E050E068E083E498E0AAD58530B8
:103C500011F481E009C014E041D580934708115068
:103C6000D9F78A3A59F482E080934808809148084D
:103C7000823061F0812C912C54010DC0FDD16C1B60
:103C80007D0B613D7740D8F285E22AC0812C912CD2
:103C9000A12C80E4B82E20E030E0A90167E383E4A2
:103CA00098E07FD5A501940169E283E498E079D595
:103CB000882341F0E1D16C1B7D0B613D774058F3C7
:103CC00083E40EC0809148088230D9F420E030E0CF
:103CD000A9016AE383E498E064D5882341F087E38F
:103CE0008093430883E498E000D580E014C0F6D4C4
:103CF000807C803C19F483E080934808EFD4EED4B4
:103D0000EDD483E498E0F1D4E0914408F0914508C3
:103D1000F082018381E0DF91CF911F910F91FF909D
:103D2000BF90AF909F908F9008958F929F92AF9287
:103D3000BF92FF92CF93DF9300D01F92CDB7DEB733
:103D4000F82E4A01AA24BB242C833B83882D6130A2
:103D500081F48C71982D937028E0829F900D11242E
:103D600098609A83A40195E0569547959A95E1F756
:103D70000AC08295880F807E8A83A40183E05695CD
:103D800047958A95E1F7498360E080915C08C9D145
:103D900082E078D38F2D76D3898174D38A8172D3D0
:103DA0008B8170D38C816ED361E080915C080F9021
:103DB0000F900F900F90DF91CF91FF90BF90AF9039
:103DC0009F908F90AEC1CF93C82F482F60EE8FE0A9
:103DD0004ADE8FE03EDB807E91E08C1301C090E0F4
:103DE000892FCF9108951F93CF93DF9300D01F9217
:103DF000CDB7DEB7182F9A01AB0180E829833A834B
:103E00004B835C83E0DF29813A814B815C818111A6
:103E100028C0123099F038F4112369F01130B9F448
:103E200060E084E013C0143079F058F0153079F474
:103E300060E088E10BC060E080E008C060E088E0FE
:103E400005C060E080E102C060E084E16EDF809147
:103E50005D080F900F900F900F90DF91CF911F9101
:103E6000B2CF0F900F900F900F90DF91CF911F91D5
:103E70000895EF92FF920F931F93CF93DF931F92BA
:103E8000CDB7DEB7162F877028E0829FC0011124BE
:103E9000682F606485EA99E0798399D3E12E79816E
:103EA000F72E8701085F1F4FF70161917F0185EAB7
:103EB00099E037D2E016F106B9F70F90DF91CF9174
:103EC0001F910F91FF90EF9008950F931F93CF9341
:103ED000DF93082F162FCCE4D8E060E0888921D149
:103EE00082E0D0D2802FCED2812FCCD261E08889DF
:103EF000DF91CF911F910F9114C1FC01918D228D03
:103F0000892F90E0805C9F4F821B91098F739927C6
:103F1000089580E090E0892B19F08FD5811125C09C
:103F200080E090E0892B41F080E090E0892B21F047
:103F30000E94000081111CC080E090E0892B41F0BC
:103F400080E090E0892B21F00E940000811113C0D5
:103F500080E090E0892BA1F080E090E0892B81F057
:103F60000E94000081110AC008950E940000D8CF6D
:103F70000E940000E1CF0E940000EACF0C940000F4
:103F8000089590E0FC013197E231F10508F04EC050
:103F90008827EC57FF4F8F4F0C9421418091800070
:103FA0008F7703C0809180008F7D8093800008957B
:103FB00080918000877FF9CF84B58F7702C084B568
:103FC0008F7D84BD08958091B0008F7703C080916C
:103FD000B0008F7D8093B0000895809190008F771E
:103FE00007C0809190008F7D03C080919000877FF3
:103FF0008093900008958091A0008F7707C08091F2
:10400000A0008F7D03C08091A000877F8093A000D7
:104010000895809120018F7707C0809120018F7DC6
:1040200003C080912001877F8093200108953FB7CE
:10403000F89480912C0490912D04A0912E04B091BD
:104040002F0426B5A89B05C02F3F19F00196A11D8E
:10405000B11D3FBFBA2FA92F982F8827820F911D1E
:10406000A11DB11DBC01CD0142E0660F771F881F65
:10407000991F4A95D1F708952FB7F89460912804B5
:104080007091290480912A0490912B042FBF0895E8
:10409000FC01848DDF01A80FB11DA35ABF4F2C91E5
:1040A000848D90E001968F739927848FA689B789B4
:1040B0002C93A089B1898C9180648C93938D848D8D
:1040C000981306C00288F389E02D80818F7D80835C
:1040D0000895CF93DF93282F30E0F901E558FC4F86
:1040E0008491F901EB5CFC4FD491F901E151FD4F52
:1040F000C491CC2389F0811144DFEC2FF0E0EE0F66
:10410000FF1FEB52FD4FA591B491EC91ED2381E09F
:1041100090E021F480E002C080E090E0DF91CF9158
:1041200008951F93CF93DF93282F30E0F901E558CE
:10413000FC4F8491F901EB5CFC4FD491F901E15102
:10414000FD4FC491CC23C1F0162F81111ADFEC2F43
:10415000F0E0EE0FFF1FE554FD4FA591B4918FB72E
:10416000F894111105C09C91ED2FE095E92302C050
:10417000EC91ED2BEC938FBFDF91CF911F910895C0
:10418000CF93DF93EC0161E08F81CBDF83EC90E094
:104190000197F1F760E08F81DF91CF91C2CFCF938C
:1041A000DF9390E0FC01EB5CFC4F2491FC01E151BA
:1041B000FD4F8491882361F190E0880F991FFC01E5
:1041C000EF55FD4FC591D491FC01E554FD4FA591EC
:1041D000B491611109C09FB7F8948881209582231A
:1041E0008883EC912E230BC0623061F49FB7F89462
:1041F0003881822F809583238883EC912E2B2C93FA
:104200009FBF06C08FB7F894E8812E2B28838FBFFD
:10421000DF91CF910895EF92FF921F93CF93DF9399
:10422000EC0160E08885BBDF60E08D817ADF61E0D2
:104230008E8177DF83E2E82EF12C60E08F8171DFE1
:1042400061E08F816EDFC7010197F1F7888541DF5B
:10425000182F60E08F8165DFCE0192DF1111EDCF65
:1042600061E088859CDF60E08E81DF91CF911F91B6
:10427000FF90EF9056CFAF92BF92CF92DF92EF9226
:10428000FF920F931F93CF93DF935C017C0189E032
:10429000E80EF11CC0E0D0E0062F10E0670161E0FD
:1042A000F70181917F017BDFB8010C2E02C075956B
:1042B00067950A94E2F76170F601808132DF2196FA
:1042C000C430D10559F783EC90E00197F1F7C501AF
:1042D000DF91CF911F910F91FF90EF90DF90CF90E2
:1042E000BF90AF904DCF1F93CF93DF93EC01162F6C
:1042F000642F8D8116DF61E08E8151DF60E08E8159
:1043000010DF812F90E0BC0184E0759567958A9558
:10431000E1F7CE01B0DF612FCE01DF91CF911F9188
:10432000AACFCF93DF93EC0141E0DDDFCE0173DF55
:10433000DF91CF910895863308F0865390917B00EA
:10434000282F2870977F922B90937B008770209165
:10435000010290E4299F90011124822B80937C001C
:1043600080917A00806480937A0080917A0086FD43
:10437000FCCF809178002091790090E0922B0895F5
:104380008F929F92AF92BF92CF92DF92EF92FF9265
:104390006B017C014CDE4B015C01C114D104E104D2
:1043A000F104E9F044DEDC01CB0188199909AA097E
:1043B000BB09883E9340A105B10578F321E0C21AFC
:1043C000D108E108F10888EE880E83E0981EA11C50
:1043D000B11CC114D104E104F10421F7DECFFF9038
:1043E000EF90DF90CF90BF90AF909F908F90089507
:1043F0001F920F920FB60F9211242F933F938F931A
:104400009F93AF93BF938091280490912904A0912A
:104410002A04B0912B043091270423E0230F2D3779
:1044200020F40196A11DB11D05C026E8230F0296B8
:10443000A11DB11D20932704809328049093290483
:10444000A0932A04B0932B0480912C0490912D0406
:10445000A0912E04B0912F040196A11DB11D80934F
:104460002C0490932D04A0932E04B0932F04BF919D
:10447000AF919F918F913F912F910F900FBE0F9011
:104480001F9018958EBD00000DB407FEFDCF8EB5B0
:1044900008958F929F92AF92BF92CF92DF92EF9248
:1044A000FF920F931F93CF93DF93EC01E5DD6B0138
:1044B0007C016093230470932404809325049093DB
:1044C0002604888106DE809322049A81992329F0AC
:1044D00091E0811190E0909322048E859F85A889B8
:1044E000B98946015701881A990AAA0ABB0A0A899A
:1044F0001B892C893D894E815F81688579859B81E7
:104500004A875B876C877D8780169106A206B30673
:1045100038F4CE82DF82E886F9861D82892F12C0A8
:104520009C83809122048B83CE82DF82E886F98689
:10453000891739F0CE86DF86E88AF98A91E09D8373
:1045400001C01D82DF91CF911F910F91FF90EF90DD
:10455000DF90CF90BF90AF909F908F900895EF9293
:10456000FF920F931F93CF93DF93EC01862F688305
:1045700049832A83EA8AFB8A0C8B1D8B60E00FDE5D
:104580008981882319F061E08881CBDD8881A1DDF4
:104590008B839A81992321F091E0811190E09B8394
:1045A0006BDD6E837F83888799872B812C831D82A7
:1045B0006A877B878C879D876E877F87888B998B9F
:1045C000DF91CF911F910F91FF90EF900895CF93BE
:1045D000DF93EC0140E087DECE01DF91CF911BCE6F
:1045E000CF92DF92EF92FF920F931F93CF93DF93BF
:1045F000EC014A8B198A61E08D81D1DD61E08E8109
:10460000CEDD61E08F81CBDD60E08D818ADD60E011
:104610008F8187DD60E08E8184DD8BE79AE10197F1
:10462000F1F78E01075F1F4F7E018DE0E80EF11C50
:10463000680161E0F80181918F01B1DD60E0F60170
:1046400080816FDD0E151F0599F70BE31CE9C8018A
:104650000197F1F768E0CE010EDEC8010197F1F78E
:1046600062E0CE0108DEC8010197F1F762E0CE01F9
:1046700002DEC8010197F1F768E0CE01FCDDC80158
:104680000197F1F768E0CE01A2DFC8010197F1F7C9
:1046900061E0CE019CDFC8010197F1F766E0CE0131
:1046A00096DFC8010197F1F762E0CE0190DFC80103
:1046B0000197F1F76CE0CE018ADFC8010197F1F7AD
:1046C000DF91CF911F910F91FF90EF90DF90CF90EE
:1046D00008958EBD0DB407FEFDCF08958FEF8EBDFA
:1046E0000DB407FEFDCF8EB50895CF93DF93FC0187
:1046F0002381222351F0EC010180F281E02D61E061
:1047000082810FDD8FEFE5DF1B82DF91CF9108956E
:104710000F931F93CF93DF938C01862FEA01D9DF8C
:1047200088818EBD8981FE013296DE5F0DB407FE61
:10473000FDCF8EBDEC17FD0711F08191F7CF0DB4C1
:1047400007FEFDCF8FEFC5DF8FEFC3DFC7DFF801B7
:104750008483982F9F71953031F087E58083C8015D
:10476000C4DF80E001C081E0DF91CF911F910F9104
:104770000895CF93DF93FC01238121110FC0EC0139
:104780000180F281E02D908181819CBD8DBDE98108
:10479000FA8160E08281C5DC81E08B83DF91CF917B
:1047A0000895EF92FF921F93CF93DF9300D01F9253
:1047B000CDB7DEB77C01162F29833A834B835C8308
:1047C000FC018381811102C0C701D3DF0E94E33164
:1047D000812F80647EDF8C817CDF8B817ADF8A8110
:1047E00078DF898176DF112311F087E801C085E940
:1047F00070DF1C3009F472DF10E070DFF701848392
:1048000087FF04C01F3F11F01F5FF7CF0F900F907D
:104810000F900F90DF91CF911F91FF90EF9008952F
:104820000F931F93CF93DF93EC0189018D81833028
:1048300039F089E0440F551F661F771F8A95D1F71D
:104840009A01AB0168E1CE01ACDF882311F082E36D
:104850001CC0A8016EEFCE015BDF8823B9F00E9477
:10486000E331182F811102C08AE50FC020E030E04B
:10487000A9016DE0CE0195DF811106C02FDF811106
:1048800003C0CE0132DF05C089E28883CE012DDF6F
:1048900010E0812FDF91CF911F910F9108950F9319
:1048A0001F93CF93DF93EC0189018D81833039F021
:1048B00089E0440F551F661F771F8A95D1F79A012B
:1048C000AB0161E1CE016DDF882319F080E38883BD
:1048D0000AC0B801CE010E949F31182F882319F019
:1048E000CE0103DF03C0CE0100DF10E0812FDF9196
:1048F000CF911F910F9108958F929F92AF92BF9287
:10490000CF92DF92EF92FF920F931F936A017B0188
:1049100048015901423051056105710510F480E0EC
:1049200050C0FC01408D518D628D738D4C155D051D
:104930006E057F05A0F32581203239F5448955891C
:104940006689778997018601E7E03695279517955F
:104950000795EA95D1F7400F511F621F731F23E09F
:1049600080967BD10097D9F2E894C7F8DD24EE2435
:10497000FF24CC0CDD1CCC0CDD1CFC01EC0DFD1D62
:1049800080829182A282B3821BC0203141F6FC0159
:1049900044895589668977894D0D511D611D711DA9
:1049A00023E080965AD1009709F4B9CFDD24EE2494
:1049B000FF24CC0CDD1CFC01EC0DFD1D91828082DE
:1049C00081E01F910F91FF90EF90DF90CF90BF900B
:1049D000AF909F908F900895FC01538D448D252FAB
:1049E00030E0842F90E0821B930B541710F0CF9689
:1049F000089501970895FC01918D828D981761F0BB
:104A0000828DDF01A80FB11D5D968C91928D9F5F05
:104A10009F73928F90E008958FEF9FEF0895FC01B0
:104A2000918D828D981731F0828DE80FF11D858D63
:104A300090E008958FEF9FEF089584E394E05DDAAE
:104A400021E0892B09F420E0822F0895EF92FF9254
:104A50000F931F93CF93DF93EC0181E0888F9B8DA1
:104A60008C8D981305C0E889F989808185FD23C064
:104A7000F62E0B8D10E00F5F1F4F0F731127E02EE6
:104A80008C8DE8120BC00FB607FCFACFE889F989C4
:104A9000808185FFF5CFCE01FBDAF2CF8B8DFE0151
:104AA000E80FF11DE35AFF4FF0820B8FEA89FB8973
:104AB0008081806207C0EE89FF896083E889F98977
:104AC00080818064808381E090E0DF91CF911F91AD
:104AD0000F91FF90EF900895CF93DF93EC01888DB5
:104AE0008823C1F0EA89FB89808185FD05C0A889FA
:104AF000B9898C9186FD0EC00FB607FCF5CF808179
:104B000085FFF2CFA889B9898C9185FFEDCFCE01C1
:104B1000BFDAE8CFDF91CF9108951F920F920FB6C1
:104B20000F9211240BB60F922F933F934F935F93E5
:104B30006F937F938F939F93AF93BF93EF93FF9365
:104B400084E394E0A5DAFF91EF91BF91AF919F913B
:104B50008F917F916F915F914F913F912F910F9026
:104B60000BBE0F900FBE0F901F9018951F920F92C3
:104B70000FB60F9211240BB60F922F938F939F9322
:104B8000EF93FF93E0914404F09145048081E0911C
:104B90004A04F0914B0482FD12C0908180914D0433
:104BA0008F5F8F7320914E04821751F0E0914D0476
:104BB000F0E0EC5CFB4F958F80934D0401C0808149
:104BC000FF91EF919F918F912F910F900BBE0F90BE
:104BD0000FBE0F901F901895EF92FF921F93CF93E7
:104BE000DF93FC01208120FF30C0EC017C01F7E065
:104BF000EF0EF11C4B815C816D817E81E981FA8130
:104C00009701808191810CDE182F811102C010E084
:104C10001DC0888181FD04C088818E7F888316C075
:104C2000E981FA8144855585668577858B819C81EC
:104C3000AD81BE81480F591F6A1F7B1F970180817C
:104C40009181EEDD8111E8CFE2CF11E0812FDF917C
:104C5000CF911F91FF90EF900895CF92DF92EF9246
:104C6000FF921F93CF93DF93EC016A017B01122F18
:104C70008B819C81AD81BE8184179507A607B707FC
:104C8000E1F0CE01A9DF811103C080E090E01BC0FC
:104C900012FF06C01882CB82DC82ED82FE820DC03C
:104CA000E981FA819E01295F3F4FB701A60180810A
:104CB0009181F5DD8111EECFE8CF13708881182B3B
:104CC0001883CE010796DF91CF911F91FF90EF904F
:104CD000DF90CF900895CF92DF92EF92FF920F93E3
:104CE0001F93CF93DF93EC016A017B01890142306E
:104CF00051056105710510F48FEF61C0888D998DA4
:104D0000AA8DBB8D84179507A607B707A8F38D81D9
:104D1000803239F58C899D89AE89BF89E7E0769527
:104D2000679557954795EA95D1F7480F591F6A1F20
:104D30007B1F22E0CE01809690DF0097E9F2E89495
:104D4000C7F8DD24EE24FF24CC0CDD1CCC0CDD1CCC
:104D5000FC01EC0DFD1D80819181A281B381BF70AA
:104D60001DC0803149F64C895D896E897F894D0D62
:104D7000511D611D711D22E0CE0180966EDF0097EE
:104D800009F4BACFDD24EE24FF24CC0CDD1CFC0199
:104D9000EC0DFD1D80819181A0E0B0E0488D598D22
:104DA0006A8D7B8D481759076A077B0738F0F80131
:104DB00080839183A283B38381E001C080E0DF918F
:104DC000CF911F910F91FF90EF90DF90CF900895BA
:104DD0006115710579F0FB0101900020E9F7319729
:104DE000AF01461B570BDC01ED91FC910280F38172
:104DF000E02D199480E090E00895653040F4FC01C6
:104E0000E60FF11DE60FF11D8181928108956B304F
:104E100040F4FC01E60FF11DE60FF11D8481958140
:104E20000895613140F4FC01E60FF11DE60FF11D1C
:104E300086819781089580E090E00895FC01AC019F
:104E4000455F5F4F80E090E8899F90011124982F83
:104E50009695922B2191892F820FE417F50799F7E8
:104E60000895CF93DF93FC012081211102C081E0DE
:104E700030C0EC01828187FF25C061E0CF010E9434
:104E8000F116FC01892B29F489818160898380E0F6
:104E900020C08081853EC1F3888183FF08C0888D52
:104EA000998DAA8DBB8D848F958FA68FB78F8C8D92
:104EB0009D8DAE8DBF8D938F828FB58BA48B8A8194
:104EC0008F778A838E819F81809686DE8823E1F2A8
:104ED000CECFDF91CF9108954F925F926F927F92E4
:104EE0008F929F92AF92BF92CF92DF92EF92FF92FA
:104EF0000F931F93CF93DF93EC014A015B014C8426
:104F00005D846E847F84A881AA2309F490C04889B7
:104F100059896A897B8984169506A606B70609F41D
:104F20008CC081149104A104B10429F41C861D864F
:104F30001E861F8677C0A3FF0BC0088D198D2A8D92
:104F40003B8D081519052A053B0508F470C014C0EF
:104F5000A5FF12C0EE81FF818681978125E0880F31
:104F6000991F2A95E1F7A0E0B0E088159905AA05F8
:104F7000BB0508F45CC056C0EE81FF81848190E0DF
:104F800009968A019B010150110921093109082E56
:104F900004C036952795179507950A94D2F77501A1
:104FA0006401B1E0CB1AD108E108F10804C0F6941D
:104FB000E794D794C7948A95D2F7C016D106E20633
:104FC000F30620F0452B462B472B81F4A6FF05C0A6
:104FD000848D958DA68DB78D04C08C8D9D8DAE8DE5
:104FE000BF8D8C879D87AE87BF8704C0C01AD10A4A
:104FF000E20AF30A8E01045F1F4FC114D104E104D9
:10500000F10481F04C855D856E857F8598018E81E8
:105010009F8161DE91E0C91AD108E108F1081816F4
:1050200064F305C0888A998AAA8ABB8A06C04C861E
:105030005D866E867F8680E001C081E0DF91CF9142
:105040001F910F91FF90EF90DF90CF90BF90AF90A6
:105050009F908F907F906F905F904F9008952F92C8
:105060003F924F925F926F927F928F929F92AF92F8
:10507000BF92CF92DF92EF92FF920F931F93CF9345
:10508000DF93CDB7DEB72E970FB6F894DEBF0FBE15
:10509000CDBF8C017B01FA0181809280DB018C9174
:1050A000807709F4BCC2D8018C918111B8C290817B
:1050B000937009F4A8C2C4010C966DE070E00E94E0
:1050C000FA4044244394460E2D831F01FE86ED864C
:1050D0001B870A8740E050E0BA01C701FDDEA12C22
:1050E0001F82B12C512C10E000E01E8291012A5F3A
:1050F0003F4F39872887ED85FE8580899189A28970
:10510000B3899C01AD01A5E0569547953795279544
:10511000AA95D1F729833A834B835C8369807A808F
:1051200061E0CF010E9404137C01009741F4AD853A
:10513000BE8511968C91882309F488C070C2FC0149
:105140008081853E11F081110BC0111103C0A9802F
:105150002A812F83141508F41F5F811105C076C0C2
:10516000141508F453C202C0853E81F18E3271F1EC
:10517000D7011B969C911B979F3009F046C00111E7
:1051800008C086FFB8CF082F0F711D96BC90502E17
:1051900007C05A9485111AC0F7018585B81216C048
:1051A000852D90E00197FDE0F89F6001F99FD00CFC
:1051B0001124C814D90450F4712C672DC7011DDEC9
:1051C000C814D90429F4892B09F495CF00E093CFB2
:1051D0008F3F910509F0D0F72FEB280F2A3108F403
:1051E000805E96012F5F3F4FD10113964D915C91E8
:1051F0001497FA01EC0DFD1D90814FEB490F4A31D8
:1052000008F4905E8913E2CF03C293FDDFCF002341
:1052100041F0B1E05B1203C2C70110DE8B11FFC188
:1052200011C04BE050E068857985C7010E941142AA
:10523000892B09F060CFF101808180FF03C031E04C
:105240003E8359CFFD81F7FFD5C1E9C18D818274BD
:10525000823409F0E4C1112359F06A2C7F8008C020
:1052600060E08D859E850E940413892B21F01F5FCD
:105270001415B0F37AC0AD85BE8511968C91882344
:1052800009F473C0CCC1ED85FE85808185FDC7C161
:1052900080899189A289B38981159E4FAF41B1055B
:1052A00008F0BDC18D859E850E941117882309F4E1
:1052B000B6C1AD85BE851696ED91FC9117971C96EB
:1052C000CD90DD90ED90FC901F97B2E0CB1AD10805
:1052D000E108F108048004C0CC0CDD1CEE1CFF1CAE
:1052E0000A94D2F780899189A289B389C80ED91E00
:1052F000EA1EFB1E25E0B701A601CF018096ADDCBA
:105300005C01009709F48BC1FC0120E032E01192AE
:1053100021503040E1F701E0ED85FE850680F78100
:10532000E02DFA83E9838281081718F190E0A0E06C
:10533000B0E0E9E0880F991FAA1FBB1FEA95D1F7DB
:10534000ED85FE854089518962897389840F951F97
:10535000A61FB71F808B918BA28BB38BA981BA81BB
:1053600012968C918230B0F4105F141508F48BCF34
:1053700011C09501B701A601400F511D611D711D9E
:10538000A981BA818D919C914BDA882309F447C198
:105390000F5FC2CFBE81BB2309F474C0F101D58079
:1053A00002E010E07EE7C72E7101F6E0EF0EF11C7F
:1053B00041C0B3E0BD1510F453E0D52E94E09D0D2F
:1053C000822F8F70E92FF0E08A3008F054C0805DA2
:1053D000E20DF31D868344E0369527954A95E1F763
:1053E0009150D91668F3F101ED0DF11DC68240E030
:1053F00050E0BA018D859E856FDD61E08D859E85CB
:105400000E9404130097C9F1DC012C912223D1F1F1
:105410001B962C9123FDF1CF4BE050E0BC01C7015E
:105420000E941142892B49F70F5F1F4F0436110567
:1054300009F4F5C0D10111964D915C911297980134
:10544000240F351F1396ED91FC9114974E0F5F1F9B
:10545000E417F50709F4ADCFC90165E0880F991F7E
:105460006A95E1F7280F391F8191082E000C990BDE
:1054700028273927EDCF895CABCFED85FE8581816B
:105480008111CDC0A30160E070E025E0440F551FFD
:10549000661F771F2A95D1F78D859E851DDD882390
:1054A00009F4BDC00FEF040DA02E1FE06101B6E0AE
:1054B000CB0ED11C9DE0B92EAA2009F45CC060E09F
:1054C0008D859E850E9404137C01892B09F4A7C059
:1054D000AD85BE851696ED91FC91179780A18160F0
:1054E00080A32A2DA01201C02064F7012083138716
:1054F0001486C6012C87A2DCD7011D968C931D97BC
:105500005B961C921E925A97F101438154812C851F
:105510002F7130E021503109B29EC001B39E900D31
:105520001124F70160E08815990540F4DA01A80F0D
:10553000B91F2C91022E000C330B0AC021E030E081
:105540008815990511F420E030E031952195310955
:10555000653018F43283218307C06B3018F435832B
:10556000248302C0378326836F5F019632966D30A5
:10557000D1F6AA94A1CFAD85BE8550964D915D918F
:105580006D917C91539785E07695679557954795F2
:105590008A95D1F73A0160E0CD010E94041300978B
:1055A000F1F120E2FC0111922A95E9F7F10136961A
:1055B0002BE0DC0101900D922A95E1F7D1012C91AD
:1055C0002871FC01248721E238E2318B208B40E0F6
:1055D00058E057874687338B228B318F208F578B2C
:1055E000468BAD85BE851696ED91FC91179780A1EF
:1055F000816080A32D81A3016D857E858A859B8531
:105600000E9425140DC0442443945ECD10E0AECD1D
:105610007394BDE07B1609F46ECD6901CECD80E0B8
:105620002E960FB6F894DEBF0FBECDBFDF91CF919F
:105630001F910F91FF90EF90DF90CF90BF90AF90B0
:105640009F908F907F906F905F904F903F902F90A2
:1056500008952F923F924F925F926F927F928F9216
:105660009F92AF92BF92CF92DF92EF92FF920F93F1
:105670001F93CF93DF93CDB7DEB72A970FB6F89479
:10568000DEBF0FBECDBF9E838D833B015A8349830E
:10569000DC018C9183FF10C012968C9181FF0CC0AD
:1056A00082FF12C0ED81FE81408D518D628D738D20
:1056B000CF0112DC811108C0ED81FE818181816002
:1056C00081838FEF9FEFB2C189819A81AC0160E045
:1056D00070E0ED81FE8180899189A289B3898095EE
:1056E0009095A095B09584179507A607B70720F366
:1056F000C980DA803C96FC83EB8322242A94322CE6
:105700002101AD81BE8150964D915D916D917C914D
:105710005397C114D10409F460C1AD81BE811696BE
:105720008D919C9117978A019B0169E03695279589
:10573000179507956A95D1F7DC011396EC91BE2E6B
:10574000B0227A01B1E0FB22B1103DC0E114F104B6
:10575000D1F5ED81FE8144855585668577854115B6
:1057600051056105710571F02B813C81B4DA87FD2B
:10577000A3CF811128C08D819E810E9411178111B4
:1057800022C09ACFED81FE81848D958DA68DB78D37
:105790000097A105B10589F4CF010E941117882354
:1057A00009F48ACFED81FE8184859585A685B7852C
:1057B000848F958FA68FB78F06C0ED81FE81848779
:1057C0009587A687B787AD81BE811696ED91FC912E
:1057D00017971C964D915D916D917C911F9742504A
:1057E000510961097109048004C0440F551F661FE7
:1057F000771F0A94D2F780899189A289B389480FCB
:10580000591F6A1F7B1F4B0D511D611D711DE11436
:10581000F10429F4C114B2E0DB0608F03EC080E0D8
:1058200092E08E199F0986018C159D0508F48C0164
:10583000E114F104A9F4AD81BE8150968D909D9044
:10584000AD90BC90539758968D919D910D90BC91C1
:10585000A02D88169906AA06BB0610F025E001C007
:1058600021E0CF018096F9D9009709F425CFA8014E
:10587000B3018E0D9F1D0E941E42E00EF11EE11429
:10588000B2E0FB0609F096C0ED81FE81868197812A
:105890008096A2D981118EC00FCF03A114A125A19A
:1058A00036A1C11484E0D80608F46AC082818B193D
:1058B00090E0AD2CA694B12C8A159B0508F45C01F0
:1058C000041715072607370760F0D901C8018A0DAC
:1058D0009B1DA11DB11D481759076A077B0708F4D6
:1058E0009FC0AD81BE811696ED91FC911797E08027
:1058F000F180F7018581833039F099E0440F551F1D
:10590000661F771F9A95D1F79A01AB0169E1C7012C
:105910000E94D123811104C0430100E010E00FC0B8
:1059200083E3D7018C9314C0A4016CEFC7010E94DC
:105930008823882369F00F5F1F4FFEEF9F1A0A1517
:105940001B0551F040D58111EFCF8AE5F701808327
:10595000C7010E94752310C036D5882351F0102F3F
:105960000027110F8DEF0E946923C7010E94752344
:1059700021C086E5D7018C93C7010E9475239CCE78
:10598000041715072607370729F410A223A234A20B
:1059900045A256A2AD81BE811696ED91FC91179756
:1059A0009301808191810E941024882309F484CE80
:1059B00000E012E0ED81FE8180899189A289B3899E
:1059C000800F911FA11DB11D808B918BA28BB38B7A
:1059D000600E711EC01AD10A94CE58968D919D9179
:1059E0000D90BC91A02D84179507A607B70748F422
:1059F000ED81FE81408F518F628F738F828180682D
:105A00008283AD81BE8112968C9183FD03C0898112
:105A10009A810CC08D819E8124DA8111F8CF4CCE01
:105A200010A223A234A245A256A25BCF2A960FB69B
:105A3000F894DEBF0FBECDBFDF91CF911F910F91C4
:105A4000FF90EF90DF90CF90BF90AF909F908F909E
:105A50007F906F905F904F903F902F900895CF92DE
:105A6000DF92EF92FF920F931F93CF93DF936C011E
:105A70007A018B01C0E0D0E0CE15DF0589F0D801B6
:105A80006D918D01D601ED91FC910190F081E02D99
:105A9000C6011995892B11F47E0102C02196ECCF25
:105AA000C701DF91CF911F910F91FF90EF90DF9091
:105AB000CF9008950E940D420F931F93CF93DF93D1
:105AC000EC0188819981009729F02A813B81261772
:105AD000370788F48B016F5F7F4F0E942941009741
